:020000040800F2
:100000009807002045010008692F000831210008E9
:10001000652F0008070A0008574500080000000087
:100020000000000000000000000000003D32000859
:10003000CD1D000800000000F12F0008E93700087E
:100040005F0100085F0100085F0100085F01000810
:100050005F0100085F0100085F0100085F01000800
:100060005F0100085F0100085F0100085F010008F0
:100070005F0100085F0100085F0100085F010008E0
:100080005F0100085F0100085F0100085F010008D0
:100090005F0100085F0100085F0100085F010008C0
:1000A0005F0100085F0100085F0100085F010008B0
:1000B0005F0100085F010008053C00085F010008BF
:1000C0005F0100085F0100085F0100085F01000890
:1000D0005F010008DD4000085F0100085F010008C3
:1000E0005F0100085F0100085F0100085F01000870
:1000F0005F0100085F0100085F0100085F01000860
:100100005F0100085F010008393D00085F01000839
:100110005F0100085F0100085F0100085F0100083F
:100120005F0100085F0100085F0100085F0100082F
:10013000DFF80CD000F026FC0048004735460008E8
:10014000980700200648804706480047FEE7FEE77C
:10015000FEE7FEE7FEE7FEE7FEE7FEE7FEE7FEE777
:100160002938000831010008D2B201E000F8012B63
:10017000491EFBD270470022F6E710B513460A4627
:1001800004461946FFF7F0FF204610BDF0B480EAA0
:100190000102D40F4200B2EB410F02D202460846E0
:1001A00011464A0042D0C30DDDB2C1F3C752AD1AA9
:1001B000202D35DAC1F3160141F4000204B1524298
:1001C000C5F1200602FA06F12A411044B3EBD05FD4
:1001D00023D0C4B1012DA0EBC35009DCF0BC4FF01B
:1001E000004202EAC352DBB200F5000000F03EBB61
:1001F000400000F1807000EBC350A0F1807040EA35
:10020000D170490009E0490841EAC071A0EBC35030
:1002100000F50000400800EBC350F0BC00F01DBB2F
:100220006142012202EB4101001BF6E7F0BC70477E
:1002300081F00041AAE780F00040A7E780EA0102D0
:1002400010B502F00043400022D04A001FD0010E3A
:1002500001EB1261C0F35600C2F3560240F40000F5
:1002600042F40002A0FB022000047F39140400D0F5
:10027000401C50EA124001D44000491EC2B20C0694
:1002800004EBD010401C4008802A02D003E000207C
:1002900010BD20F00100002900DA0020184310BD35
:1002A00030B480EA010202F0004530F0004221F053
:1002B000004013D090B1C30DD40DC2F31601C0F3AA
:1002C0001600E41A41F4000140F400027D3491422A
:1002D00001D3641C00E04900002C02DA30BC00208D
:1002E00070474FF400000023914201D3891A034361
:1002F00040084FEA4101F7D151B1914202D14FF08C
:10030000004105E002D24FF0010101E06FF0010170
:1003100003EBC450284430BC00F09FBA2DE9FE4FD7
:10032000804681EA0300C00F0C46009021F0004196
:1003300023F00045B8EB0200A94105D24046214612
:1003400090461C460B46024623F00040104347D01F
:10035000270DC7F30A00C3F30A510290401A019017
:1003600040286BDAC3F3130040F4801B00989246D8
:1003700020B10023D2EB030A63EB0B0B0198594623
:10038000C0F14002504600F037FA06460D4650468E
:100390005946019A00F04FFA10EB08006141002421
:1003A00087EA115284EAE7731A4340D0009A62B395
:1003B000019A012A4FEA075215DC001B61EB02018A
:1003C0004FF0004202EA0752CDE90042001C41F51D
:1003D000801132462B4600F086FA03B0BDE8F08F5C
:1003E00040462146F9E7001B61EB0201001C41F584
:1003F000801300185B412018A2F5001747EB03019A
:1004000040EAD570B6196D4111E06D084FEA360625
:1004100045EAC0754FEA0752001B61EB0201001C60
:1004200041F5801149084FEA300000195141324628
:100430002B4603B0BDE8F04F00F046BA0098012209
:1004400040000023D0EB020263EBE07300982146EA
:100450004FEAE074B8EB000061EB0401E9E783F0D8
:1004600000435BE781F0004158E72DE9FE4F81EA48
:10047000030404F0004421F0004100944FF0000B0D
:1004800023F0004350EA01045ED052EA03045BD03B
:10049000C3F30A54C1F30A552C44A4F2F334019473
:1004A000A0FB0254C1F3130141F48011C3F3130301
:1004B00043F4801301FB024400FB034E840A970AB5
:1004C00044EA815447EA8357A4FB076802958D0AE2
:1004D00005FB07854FEA932C04FB0C542705029D6E
:1004E0004FEA065847EA1637B5EB08056EEB070CDE
:1004F000870E920E47EA811742EA8312A7FB020198
:10050000B6EB0B0164EB00042B0D43EA0C335E18D1
:1005100044EB1C50DA465146E7FB0201C5F31304D5
:100520004FEA0B3343EA14534FEA0432019C43EA87
:100530000603A4F10C040294009CCDE900B400F081
:10054000D2F903B0BDE8F08F00200146F9E72DE9AC
:10055000F04D81EA030404F0004B21F000451446FD
:100560004FF0000A23F0004150EA050220D054EA7F
:1005700001021DD0C5F30A570246C5F31303C1F3A8
:100580001300C1F30A5640F4801543F48013A7EB1F
:100590000608101BD64608F2FD3873EB050002D39F
:1005A00008F1010801E092185B41B8F1000F03DA8D
:1005B00000200146BDE8F08D00204FF48011064672
:1005C00084460EE0171B73EB050705D3121B63EB84
:1005D000050306434CEA010C49084FEA3000921823
:1005E0005B4150EA0107EDD152EA030012D082EAE2
:1005F000040083EA0501084305D0101BAB4106D275
:100600000122002306E000224FF0004302E06FF0D9
:10061000010253101AEB06004CEB085110EB0A00D4
:1006200041EB0B01BDE8F04D00F04EB9C10F80EA7F
:10063000E0700844CA079623002100F017B99623FA
:100640000022114600F012B90EB5C10F80EAE07029
:100650000844CA07002140F233438DE80E000A46E1
:100660000B4600F040F903B000BD0EB540F2334137
:1006700002910021CDE900110A460B4600F033F942
:1006800003B000BD00F0004220F00040C10DC0F3F7
:10069000160040F400007F2901DA002070479629F7
:1006A00003DCC1F19601C84001E096398840002A78
:1006B000F4D04042704720F00040C10DC0F3160056
:1006C00040F400007F2901DA00207047962903DCFE
:1006D000C1F19601C8407047963988407047C1F310
:1006E0000A5210B5C1F3130140F2FF3341F48011F7
:1006F0009A4201DA002010BD40F233439A42A2F23E
:10070000334203DC524200F086F810BD904010BD29
:1007100000F0004230F000400AD0C10D01F56071D8
:10072000C0F3160042EA0151C20840071143704766
:10073000002001467047000030B5041E71F100042E
:1007400004DB4FF00044404264EB0101141E73F1DE
:10075000000405DB1C464FF00043524263EB0403E8
:100760008B4208BF824230BD30B5041E71F10004D7
:1007700004DB4FF00044404264EB0101141E73F1AE
:10078000000405DB1C464FF00043524263EB0403B8
:10079000994208BF904230BD01F0004330B421F0CF
:1007A000004150EA010206D00A0DA2F56072C1F3C1
:1007B0001301002A02DC30BC00207047440F44EAD9
:1007C000C104C100E01830BC00EBC25000F045B8D5
:1007D000002801DBC0F10040002901DBC1F100412C
:1007E00081427047002801DBC0F10040002901DB95
:1007F000C1F1004188427047202A04DB203A00FA08
:1008000002F1002070479140C2F1200320FA03F367
:10081000194390407047202A04DB203A21FA02F065
:100820000021704721FA02F3D040C2F1200291402A
:10083000084319467047202A06DBCB17203A41FAB5
:1008400002F043EAE07306E041FA02F3D040C2F15D
:10085000200291400843194670470029A8BF7047FD
:10086000401C490008BF20F00100704710B4B0FAE6
:1008700080FC00FA0CF050EA010404BF10BC704781
:1008800049B1CCF1200421FA04F411FA0CF118BF9B
:10089000012121430843A3EB0C01CB1D4FEA00616A
:1008A0004FEA102042BF002010BC704700EBC3503D
:1008B00010440029A4BF10BC7047401C490008BF69
:1008C00020F0010010BC704710B5141E73F1000435
:1008D00008DA401C41F1000192185B411A4301D132
:1008E00020F0010010BD2DE9F04D92469B4611B15C
:1008F000B1FA81F202E0B0FA80F220329046FFF7BE
:100900007BFF04460F4640EA0A0041EA0B015346CA
:100910005A46084313D0114653EA010019D0C8F1D2
:1009200040025046FFF777FF05460E4650465946AF
:100930004246FFF761FF084305D0012004E020464E
:100940003946BDE8F08D0020054346EAE0762C43A9
:1009500037430A986305E40AA0EB08000022FD0A69
:1009600044EA47540A3002D500200146E9E7010570
:1009700010196941DDE9084500196941BDE8F04DEC
:10098000A2E70000064C074D06E0E06840F00103D6
:1009900094E8070098471034AC42F6D3FFF7CCFB3D
:1009A000A8610008C861000870B58D1810F8014BE7
:1009B00014F0030201D110F8012B231106D110F815
:1009C000013B03E010F8016B01F8016B521EF9D1F5
:1009D000ABB110F8012B04F00C048A1A0C2C03D0D4
:1009E000A2EB84129B1C08E010F8014BA2EB04223E
:1009F000F8E712F8014B01F8014B5B1EF9D5A9424B
:100A0000D4D3002070BD00BFFEE7000008B54FF64C
:100A1000FF707D231A464E210090052001F08AFECA
:100A20004FF6E0705023042255210090012001F080
:100A300004FE4FF6E0705523072250210090042059
:100A400001F0FBFD4FF6E07067237D221946009010
:100A5000042001F0F2FD06200149088008BD0000D5
:100A60000800002008B54FF6FF707D231A462821A4
:100A70000090052001F05EFE4FF6E070282304226E
:100A80002D210090012001F0D8FD4FF6E0702D23BC
:100A9000072228210090042001F0CFFD4FF6E070DE
:100AA00014237D2228210090042001F0C6FD4FF67A
:100AB000E0707D231A4619460090042001F0BDFD28
:100AC00006200149088008BD080000202DE9F047F4
:100AD0008AB08246BAF10C0F7DD1FE48008830B949
:100AE0000020FD4908700120FA490880C4E3F94854
:100AF000008818281AD2DFE800F0190C1A2F445980
:100B00006F8499AEC3D8F7F5F4F3F2F11919F0EF49
:100B1000EEED0220EF4908800020262358221946D6
:100B20000090502001F089FDFFF770FFB6E103202F
:100B3000E8490880002026236022194600905820AA
:100B400001F07BFD4FF6FF702623582219460090D6
:100B5000502001F072FDA1E10420DE490880002050
:100B60002623702219460090682001F066FD4FF69A
:100B7000FF702623602219460090582001F05DFD89
:100B80008CE10520D34908800020262378221946CD
:100B90000090702001F051FD4FF6FF702623702267
:100BA00019460090682001F048FD77E10620C94908
:100BB000088000203A232422194600901C2001F0CE
:100BC0003CFD4FF6FF7026237822194600907020D6
:100BD00001F033FD62E162E10720BE490880002098
:100BE0003A232C2219460090242001F026FD4FF6CE
:100BF000FF703A232422194600901C2001F01DFDAD
:100C00004CE10820B349088000203A233C221946D1
:100C10000090342001F011FD4FF6FF703A232C2292
:100C200019460090242001F008FD37E10920A94968
:100C3000088000203A234422194600903C2001F00D
:100C4000FCFC4FF6FF703A233C22194600903420FA
:100C500001F0F3FC22E10A209E49088000204E2387
:100C60000C2219460090042001F0E7FC4FF6FF70BB
:100C70003A234422194600903C2001F0DEFC0DE1AD
:100C80000B209449088000204E231422194600901E
:100C90000C2001F0D2FC4FF6FF704E230C221946B7
:100CA0000090042001F0C9FCF8E00C20894908807C
:100CB00000204E232422194600901C2001F0BDFC88
:100CC0004FF6FF704E231422194600900C2001F0BD
:100CD000B4FCE3E0D2E0BCE0A6E097E06DE057E0D2
:100CE00041E02BE015E0FFE70D207A490880002065
:100CF0004E232C2219460090242001F09EFC4FF632
:100D0000FF704E232422194600901C2001F095FC10
:100D1000C4E00E206F49088000204E23542219465B
:100D200000904C2001F089FC4FF6FF704E232C22DE
:100D300019460090242001F080FCAFE00F206549A7
:100D4000088000204E235C2219460090542001F0B8
:100D500074FC4FF6FF704E235422194600904C202D
:100D600001F06BFC9AE010205A49088000204E23C5
:100D70006C2219460090642001F05FFC4FF6FF7072
:100D80004E235C2219460090542001F056FC85E069
:100D900011205049088000204E23742219460090EB
:100DA0006C2001F04AFC4FF6FF704E236C2219466E
:100DB0000090642001F041FC70E00020454908806B
:100DC0000120454908704FF6FF704E2374221946E2
:100DD00000906C2001F031FC40490869FFF798FC55
:100DE00004460D463D49C868FFF792FC06460F468B
:100DF0003A498868FFF78CFC39A28DE8C300CDE939
:100E000004452821042003F063FE47E01520314902
:100E1000088000202623582219460090502001F017
:100E20000CFCFFF71FFE39E016202A49088000203D
:100E30002623602219460090582001F0FEFB4FF651
:100E4000FF702623582219460090502001F0F5FB30
:100E500024E017201F490880002026236822194615
:100E60000090602001F0E9FB4FF6FF70262360221E
:100E700019460090582001F0E0FB0FE014201549BE
:100E800008800420144908704FF6FF70262368225A
:100E900019460090602001F0D0FB00BFECE10D4846
:100EA0000088182815D2DFE800F00C254F5C718609
:100EB0009BB0C5DAFBF9F8F7F6F5F4F31414F2F188
:100EC000F0EF03200449087014200249088001F063
:100ED000D1FCD0E1E8020020EA0200200403002057
:100EE0004B503D2566204B493D0A2566204B443D2D
:100EF000256600000020E24908800120E1490870D1
:100F0000E1490869FFF704FC04460D46DE49C8685C
:100F1000FFF7FEFB06460F46DB498868FFF7F8FB44
:100F200080468946D9480068FFF7F2FBCDE90750B3
:100F30000991D7A28DE80303CDE904670694142133
:100F4000502003F0C5FD96E10120CD4908804FF601
:100F5000FF702623582219460090502001F06DFBA7
:100F600089E10220C64908804FF6FF7026236022DF
:100F700019460090582001F060FB002026235822DB
:100F800019460090502001F058FB74E10320BC4941
:100F900008804FF6FF7026237022194600906820C3
:100FA00001F04BFB002026236022194600905820B8
:100FB00001F043FB5FE10420B14908804FF6FF7068
:100FC0002623782219460090702001F036FB00207D
:100FD0002623702219460090682001F02EFB4AE17A
:100FE0000520A74908804FF6FF703A2324221946AE
:100FF00000901C2001F021FB0020262378221946B6
:101000000090702001F019FB35E106209C49088012
:101010004FF6FF703A232C2219460090242001F04D
:101020000CFB00203A232422194600901C2001F0DA
:1010300004FB20E10720924908804FF6FF703A2315
:101040003C2219460090342001F0F7FA00203A23A0
:101050002C2219460090242001F0EFFA0BE1082021
:10106000874908804FF6FF703A23442219460090C2
:101070003C2001F0E2FA00203A233C22194600907D
:10108000342001F0DAFAF6E0E0E0CAE0B9E0AFE0DF
:1010900099E083E06DE057E041E02BE015E0FFE7E9
:1010A0000920774908804FF6FF704E230C2219461D
:1010B0000090042001F0C1FA00203A23442219468E
:1010C00000903C2001F0B9FAD5E00A206C49088074
:1010D0004FF6FF704E231422194600900C2001F0A9
:1010E000ACFA00204E230C2219460090042001F097
:1010F000A4FAC0E00B20624908804FF6FF704E232F
:101100002422194600901C2001F097FA00204E235B
:101110001422194600900C2001F08FFAABE00C204D
:10112000574908804FF6FF704E232C221946009035
:10113000242001F082FA00204E2324221946009038
:101140001C2001F07AFA96E00D204D4908804FF6F8
:10115000FF704E235422194600904C2001F06DFA86
:1011600000204E232C2219460090242001F065FA1D
:1011700081E00E20424908804FF6FF704E235C222A
:1011800019460090542001F058FA00204E235422B2
:10119000194600904C2001F050FA6CE00F203849BD
:1011A00008804FF6FF704E236C2219460090642091
:1011B00001F043FA00204E235C221946009054208F
:1011C00001F03BFA57E010202D4908804FF6FF70E0
:1011D0004E237422194600906C2001F02EFA002054
:1011E0004E236C2219460090642001F026FA42E05A
:1011F00001202449087000202149088001F0BEFA2E
:1012000039E014201E49088004201E4908704FF65A
:10121000FF702623582219460090502001F00DFA45
:1012200029E01520164908804FF6FF70262360221A
:1012300019460090582001F000FA00202623582279
:1012400019460090502001F0F8F914E016200C49DE
:1012500008804FF6FF702623682219460090602010
:1012600001F0EBF900202623602219460090582057
:1012700001F0E3F900BF00BF0AB0BDE8F08700004D
:10128000E8020020EA020020040300200000002001
:1012900025660A4B503D2566204B493D0A256620B0
:1012A0004B443D256600000001B590B0FE48008823
:1012B000801E162857D2DFE810F016005700920063
:1012C000EA0042018801C60132028F02D4021303F0
:1012D0007003CB031C045B04B60456005600560092
:1012E000130537055C05109800EB800040000D9059
:1012F000FFF79CF9ED490F90ED480068FEF7D0FF2D
:101300000B90FFF7D8F980B200EB800040000C9002
:10131000FFF78CF90D90E64801680D98FEF78BFFFA
:101320000E900F99FEF732FFE14908600846006809
:10133000FFF7EEF9CDE90E0101460F98DDA2CDE9E8
:1013400000101421502003F0C3FBDB49D84800688B
:10135000FEF774FF0E90FFF7AEF9022201460F90E0
:10136000062000F0D1FD36E21098FFF768F90F90E3
:10137000CF480068FFF79FF980B20A2190FBF1F295
:1013800001FB12000C90FFF751F90D90C84801685D
:101390000D98FEF750FF0E900F99FEF7F7FEC44927
:1013A000086008460068FFF7B3F9CDE90E01014671
:1013B0000F98C0A2CDE900101421502003F088FB43
:1013C000BD49BB480068FEF739FF0E90FFF773F97F
:1013D000022201460F90062000F096FDC3E7109808
:1013E000FFF743F90022B54BCDE90801FFF7AFF84D
:1013F000CDE90C01AD49AE480068FEF71FFF029031
:10140000FFF759F980B20A2190FBF1F201FB1200BB
:101410000390FFF719F90022A84BCDE90401FFF76B
:1014200096F8CDE90801A2480068FFF771F9CDE907
:101430000601DDE90823FFF712F8CDE90A01DDE92D
:101440000C23FEF76BFFCDE90E01FFF7A5F99849D4
:10145000086008460068FFF75BF9CDE90E01014618
:101460000F9894A2CDE900101421502003F030FB16
:1014700091498F480068FEF7E1FE0E90FFF71BF9D7
:10148000022201460F90062000F03EFD6BE7109807
:10149000FFF7EBF800228A4BCDE90801FFF757F878
:1014A000CDE90C01844982480068FEF7C7FE02902E
:1014B000FFF701F980B20A2190FBF1F201FB120063
:1014C0000390FFF7C1F800227D4BCDE90401FFF73F
:1014D0003EF8CDE9080176480068FFF719F9CDE933
:1014E0000601DDE90823FEF7BAFFCDE90A01DDE9CF
:1014F0000C23FEF713FFCDE90E01FFF74DF96C4900
:10150000086008460068FFF703F9CDE90E010146BF
:101510000F9868A2CDE900101421502003F0D8FAEA
:10152000654963480068FEF789FE0E90FFF7C3F82F
:10153000022201460F90062000F0E6FC13E7109807
:1015400000EB800040000D90FFF770F80F905D48B1
:10155000806856490A90FEF7A3FE0B90FFF7ABF8A0
:1015600080B200EB800040000C90FFF75FF80D9018
:101570005448806801460C900D98FEF75CFE0E9072
:101580000F99FEF703FE4F498860084680680D906A
:10159000FFF7BEF8CDE90E0101460F9845A2CDE94F
:1015A000001028211C2003F093FA46488068424925
:1015B0000D90FEF743FE0E90FFF77DF802220146E4
:1015C0000F90002000F0A0FCEFE31098FFF737F831
:1015D0000F903C4880680B90FFF76DF880B20A21AD
:1015E00090FBF1F201FB12000C90FFF71FF80D9039
:1015F0003448806801460C900D98FEF71CFE0E9052
:101600000F99FEF7C3FD2F498860084680680D904A
:10161000FFF77EF8CDE90E0126A2CDE900012821D1
:101620001C2003F055FA2748806823490D90FEF7E7
:1016300005FE0E90FFF73FF8022201460F900020B2
:1016400000F062FCB1E31098FFF70FF800221B4B8B
:10165000CDE90801FEF77BFFCDE90C011948806850
:1016600012490190FEF7EAFD0290FFF724F880B2DC
:101670000A2190FBF1F201FB12000390FEF7E4FF58
:1016800000220E4BCDE90401FEF761FFCDE9080110
:101690000C4880680590FFF73BF8CDE90601DDE9CD
:1016A0000823FEF7DCFE0FE0E802002000002041E6
:1016B00000000020256600000000C8420000244011
:1016C0000000594004030020CDE90A01DDE90C23A4
:1016D000FEF724FECDE90E01FFF75EF8FE498860B3
:1016E000084680680D90FFF713F8CDE90E01AFF2C0
:1016F0003C02CDE9000128211C2003F0E9F9F6485D
:101700008068F6490D90FEF799FD0E90FEF7D3FF25
:10171000022201460F90002000F0F6FB45E31098EE
:10172000FEF7A3FF0022EE4BCDE90801FEF70FFF05
:10173000CDE90C01E8488068E8490190FEF77EFD9C
:101740000290FEF7B8FF80B20A2190FBF1F201FB94
:1017500012000390FEF778FF0022E14BCDE904016F
:10176000FEF7F5FECDE90801DB4880680590FEF73D
:10177000CFFFCDE90601DDE90823FEF770FECDE9D4
:101780000A01DDE90C23FEF7C9FDCDE90E01FFF7E3
:1017900003F8D1498860084680680D90FEF7B8FFCD
:1017A000CDE90E0101460F98AFF2F802CDE9001025
:1017B00028211C2003F08CF9C7488068C7490D9088
:1017C000FEF73CFD0E90FEF776FF022201460F90D9
:1017D000002000F099FBE8E2109800EB8000400048
:1017E0000D90FEF723FF0F90BB48C068BD490A90DB
:1017F000FEF756FD0B90FEF75EFF80B200EB800017
:1018000040000C90FEF712FF0D90B348C0680146EF
:101810000C900D98FEF70FFD0E900F99FEF7B6FC99
:10182000AD49C8600846C0680D90FEF771FFCDE96C
:101830000E01AFF28012CDE900013C21042003F03B
:1018400047F9A548C068A5490D90FEF7F7FC0E9032
:10185000FEF731FF022201460F90104600F054FBC4
:10186000A3E21098FEF7EBFE0F909B48C0680B9028
:10187000FEF721FF80B20A2190FBF1F201FB12007A
:101880000C90FEF7D3FE0D909348C06801460C9073
:101890000D98FEF7D0FC0E900F99FEF777FC8E495D
:1018A000C8600846C0680D90FEF732FFCDE90E0112
:1018B000AFF20022CDE900013C21042003F008F939
:1018C0008548C06885490D90FEF7B8FC0E90FEF77C
:1018D000F2FE022201460F90104600F015FB64E272
:1018E0001098FEF7C2FE00227F4BCDE90801FEF7FB
:1018F0002EFECDE90C017848C0687A490190FEF7C8
:101900009DFC0290FEF7D7FE80B20A2190FBF1F217
:1019100001FB12000390FEF797FE0022724BCDE907
:101920000401FEF714FECDE908016B48C06805907C
:10193000FEF7EEFECDE90601DDE90823FEF78FFD97
:10194000CDE90A01DDE90C23FEF7E8FCCDE90E0143
:10195000FEF722FF6049C8600846C0680D90FEF798
:10196000D7FECDE90E0101460F98AFF2B822CDE9BE
:1019700000103C21042003F0ABF85748C0685749D9
:101980000D90FEF75BFC0E90FEF795FE02220146DD
:101990000F90104600F0B8FA07E21098FEF765FEC7
:1019A00000224F4BCDE90801FEF7D1FDCDE90C0136
:1019B0004948C06849490190FEF740FC0290FEF793
:1019C0007AFE80B20A2190FBF1F201FB1200039033
:1019D000FEF73AFE0022424BCDE90401FEF7B7FDC7
:1019E000CDE908013C48C0680590FEF791FECDE9BD
:1019F0000601DDE90823FEF732FDCDE90A01DDE944
:101A00000C23FEF78BFCCDE90E01FEF7C5FE324933
:101A1000C8600846C0680D90FEF77AFECDE90E0159
:101A2000AFF27032CDE900013C21042003F050F800
:101A30002948C06829490D90FEF700FC0E90FEF77A
:101A40003AFE022201460F90104600F05DFAACE12A
:101A5000109800EB800040000D90FEF7E7FD0F901E
:101A60001D4800691F490A90FEF71AFC0B90FEF70B
:101A700022FE80B200EB800040000C90FEF7D6FD05
:101A80000D901548006901460C900D98FEF7D3FBA8
:101A90000E900F99FEF77AFB0F490861084600691E
:101AA0000D90FEF735FECDE90E01AFF2F832CDE92B
:101AB00000013C214C2003F00BF80748006907495E
:101AC0000D90FEF7BBFB0E90FEF7F5FD02220146DE
:101AD0000F9004200AE00000040300200000C84228
:101AE00000005940000020410000244000F00CFAA2
:101AF0005BE11098FEF7A3FD0F90AD4800690B90D5
:101B0000FEF7D9FD80B20A2190FBF1F201FB120031
:101B10000C90FEF78BFD0D90A548006901460C90D6
:101B20000D98FEF788FB0E900F99FEF72FFBA0494A
:101B30000861084600690D90FEF7EAFDCDE90E0147
:101B4000AFF29042CDE900013C214C2002F0C0FFF1
:101B50009748006997490D90FEF770FB0E90FEF7CD
:101B6000AAFD022201460F90042000F0CDF91CE1ED
:101B70001098FEF77AFD00228F4BCDE90801FEF7A1
:101B8000E6FCCDE90C018A4800698C490190FEF71A
:101B900055FB0290FEF78FFD80B20A2190FBF1F217
:101BA00001FB12000390FEF74FFD0022824BCDE9AE
:101BB0000401FEF7CCFCCDE908017D4800690590E1
:101BC000FEF7A6FDCDE90601DDE90823FEF747FC97
:101BD000CDE90A01DDE90C23FEF7A0FBCDE90E01FA
:101BE000FEF7DAFD72490861084600690D90FEF7BC
:101BF0008FFDCDE90E01AFF24452CDE900013C2149
:101C00004C2002F065FF6A4800696A490D90FEF7B2
:101C100015FB0E90FEF74FFD022201460F900420A7
:101C200000F072F9C1E01098FEF71FFD0022644B2E
:101C3000CDE90801FEF78BFCCDE90C015C48006999
:101C40005C490190FEF7FAFA0290FEF734FD80B28B
:101C50000A2190FBF1F201FB12000390FEF7F4FC65
:101C60000022574BCDE90401FEF771FCCDE90801D4
:101C70004F4800690590FEF74BFDCDE90601DDE90F
:101C80000823FEF7ECFBCDE90A01DDE90C23FEF7A2
:101C900045FBCDE90E01FEF77FFD45490861084689
:101CA00000690D90FEF734FDCDE90E0101460F9855
:101CB000AFF20062CDE900103C214C2002F008FF99
:101CC0003B4800693B490D90FEF7B8FA0E90FEF7CD
:101CD000F2FC022201460F90042000F015F964E0A6
:101CE00038480088642190FBF1F000EBC00101EB63
:101CF000001034490988A1EB8001109800EBC00264
:101D000002EB001001EB80002E4908800846038892
:101D10002DA21421502002F0DBFE02222948018866
:101D2000082000F0F1F840E0264800880A2190FBE6
:101D3000F1F080B290FBF1F201FB120000EB8000A9
:101D400020490988A1EB4001109800EB800001EBCD
:101D500040001C490880084603881BA2142150201B
:101D600002F0B6FE022217480188082000F0CCF8E5
:101D70001BE0144800880A2190FBF1F201FB1200DD
:101D800010490988091A109808440E490880084625
:101D900003880DA21421502002F09AFE0222094865
:101DA0000188082000F0B0F800BF00BF11B000BDEE
:101DB000040300200000C84200002440000020412D
:101DC000000059400400002025640000704710B551
:101DD00000F0CCF910BD2DE9F04107460C46002675
:101DE000002509E036023919491B491E88B200F066
:101DF00008F80644681CC5B2A542F3DB3046BDE8CE
:101E0000F08170B50446002600F052FA2546E1172D
:101E100004EB11610912A02202EB4101C8B200F0EB
:101E200015FA00F07DFAE11704EB11610912A4EB39
:101E30000121C8B200F00AFA00F072FA00F038FA94
:101E4000A12000F003FA00F06BFA002000F0D2F9B4
:101E5000064600F049FA304670BD00002DE9F04119
:101E600002210020FFF7B7FF8046FEF7FEFB064683
:101E70000022214BFEF76BFB0446FEF78DFC1F4949
:101E8000886002210846FFF7A6FF8046FEF7EDFBBB
:101E900006460022184BFEF75AFB0446FEF77CFC70
:101EA0001649C86002210420FFF795FF8046FEF71F
:101EB000DCFB06460022104BFEF749FB0446FEF70A
:101EC0006BFC0E49086102210620FFF784FF804663
:101ED000FEF7CBFB06460022074BFEF738FB044615
:101EE000FEF75AFC0649086002210820FFF773FF3D
:101EF00004490880BDE8F081000059400403002037
:101F000000000020040000202DE9F04105460E46A7
:101F10001746002409E0E20026FA02F2D1B22A199B
:101F200090B200F006F8601CC4B2BC42F3DBBDE81E
:101F3000F08170B504460E4600F0BAF92546E11767
:101F400004EB11610912A02202EB4101C8B200F0BA
:101F50007DF900F0E5F9E11704EB11610912A4EB3A
:101F60000121C8B200F072F900F0DAF9304600F051
:101F70006DF900F0D5F900F0B7F90A2002F0FCFA8B
:101F800070BD2DE9F0410246002500260020002307
:101F90000024002791F803C00CF00F0591F803C04E
:101FA0000CF0100CBCF1000F03D091F802C04CEA09
:101FB000050591F800C0BCF1000F31D01468002075
:101FC0002BE04FF0010C0CFA00F3B1F800C00CEA62
:101FD00003069E4220D183004FF00F0C0CFA03F74A
:101FE000BC4305FA03FC4CEA040491F803C0BCF1BD
:101FF000280F06D14FF0010C0CFA00FCC2F814C0F7
:102000000AE091F803C0BCF1480F05D14FF0010C74
:102010000CFA00FCC2F810C0401C0828D1D3146090
:10202000B1F800C0BCF1FF0F34DD546800202EE091
:1020300000F1080C4FF0010808FA0CF3B1F800C0E9
:102040000CEA03069E4221D183004FF00F0C0CFADC
:1020500003F7BC4305FA03FC4CEA040491F803C0FF
:10206000BCF1280F05D100F1080C08FA0CF8C2F8F1
:10207000148091F803C0BCF1480F07D100F1080C9F
:102080004FF0010808FA0CF8C2F81080401C08282C
:10209000CED35460BDE8F081F0B50A460023002499
:1020A0000021002500F00046B6F1004F02D11D4E80
:1020B000F16901E01B4E7168C0F3034583B200F47F
:1020C0004016B6F5401F08D121F07061154E7668B4
:1020D00026F07066134F7E6012E000F48016B6F5AD
:1020E000801F06D1032606FA05F4A14341F0706172
:1020F00006E0460D360103FA06F6B14341F0706181
:1021000022B1460D360103FA06F6314300F00046CF
:10211000B6F1004F02D1034EF16101E0014E716052
:10212000F0BD00000000014041617047016170474F
:1021300000BFFEE710B500200A49086001F06CF806
:1021400000200949C1F8AC01022002F03BFA01204D
:1021500004490860052002F035FA00200249C1F860
:10216000A80110BDA88121420080214208B50121AB
:10217000082000F0C7FF4FF48060ADF80000032096
:102180008DF8020010208DF8030069460848FFF71B
:10219000F8FE4FF40060ADF8000069460448FFF710
:1021A000F0FE0120034908600349C1F8AC0108BDF5
:1021B000000C0140A88121420080214210B500207E
:1021C0000A49086001F028F801200949C1F8AC016A
:1021D000022002F0F7F9012004490860052002F00E
:1021E000F1F900200249C1F8A80110BDA8812142DF
:1021F0000080214270B50546002400F0FDFF002656
:1022000016E000200F490860022002F0DBF90120EF
:102210000D49C1F8A8016006040E0A487C38006820
:1022200008B1601CC4B2012002F0CCF9701CC6B227
:10223000082EE6DB15B9FFF7C1FF01E0FFF77AFFD3
:10224000204670BDA88121420080214270B504461D
:1022500000F0E2FF002014490860002520E004F0AF
:102260008000002804DD01200F49091D086003E0FB
:1022700000200D49091D08606006040E022002F0CE
:10228000A1F9012008490860022002F09BF9002012
:102290000649C1F8A801022002F094F9681CC5B2F1
:1022A000082DDCDB70BD0000A881214200802142A6
:1022B00010B500F0B1FF0120094908600949C1F8D3
:1022C000A801052002F07EF90020054908600620DB
:1022D00002F078F900200349C1F8A80110BD000000
:1022E000AC8121420080214210B500F095FF002012
:1022F000094908600949C1F8AC0101200649086094
:10230000062002F05FF901200449C1F8AC01062063
:1023100002F058F910BD0000A8812142008021423E
:1023200010B5002401200F49086002F04BF900F0BD
:1023300063FF01200C49C1F8A80102F043F907E04E
:10234000601CC4B2FA2C03DDFFF7CEFF012010BDE4
:102350000448803800680028F2D10249091F08604B
:1023600000BFF4E7AC8121420080214210B5044651
:102370000C2C01D00A2C0CD10A2C05D00C2C07D126
:102380000C20FEF7A3FB03E00A20FEF79FFB00BF33
:1023900002E02046FEF788FF10BD000070B5002463
:1023A000002500BF2BE0002525E004EB4400154983
:1023B0000844405D04EB4401134A1144495D8842DE
:1023C00017D004EB44000F490844405D012806D1B2
:1023D00004EB44010D4A1144485DFFF7C7FF04EBCD
:1023E000440008490844405D04EB4401064A114496
:1023F0004855681CC5B2022DD7DD601CC4B2032C41
:10240000D1DD70BD5403002060030020EB020020EA
:1024100008B50121802000F075FE0720ADF800000E
:1024200010208DF8030003208DF8020069460A4849
:10243000FFF7A7FD0121402000F064FE3C20ADF82D
:10244000000010208DF8030003208DF8020069467B
:102450000248FFF796FD08BD001C0140001801402E
:10246000524800685249097801EB4101514A515CD8
:1024700040EA41004E49097801EB410150544B4874
:10248000001F00684A49097801EB4101114449786D
:1024900040EA41004649097801EB41011144487086
:1024A0004248083800684249097801EB410111446B
:1024B000897840EA41003E49097801EB4101114425
:1024C000887000203C49087032E03948007800EB01
:1024D00040003849084438490978405C00F00F0052
:1024E0000F280AD101213248007800EB4000334A1E
:1024F0001044314A1278815415E02D48007800EBE1
:1025000040002C4908442C490978405C00F00F0039
:1025100048B900202649097801EB4101274A1144B6
:10252000254A1278885424480078401C22490870B3
:10253000214800780328C8DB1D480078401C1C494E
:1025400008700846007800F003000870084600781C
:1025500030B101280CD0022813D0032823D119E070
:1025600000201749086001201649C1F888011AE0C7
:10257000002013490C39086001201249C1F88C0170
:1025800011E000200E490839086001200D49C1F80A
:10259000900108E000200A49091F0860012009494C
:1025A000C1F8940100BF00BF7047000008812342BA
:1025B000F702002048030020F80200205403002006
:1025C00094012342000023422DE9F04104460D46C8
:1025D00016461F462A2000F033FBE11C88B200F0AB
:1025E00013FBF11C88B200F00FFB2B2000F028FB3E
:1025F000A91C88B200F008FBB91C88B200F004FBEB
:102600002C2000F01DFBBDE8F08170B506467F234D
:102610001A4600210846FFF7D7FF00240AE00025EC
:1026200004E0304600F0F0FA681C85B2802DF8DB3B
:10263000601C84B2802CF2DB70BD2DE9FF4F85B0A9
:1026400081468A460020039083460798A0EB090440
:102650000898A0EB0A06CDF80890CDF804A0002C4D
:1026600001DD012705E00CB9002702E04FF0FF373C
:102670006442002E02DD4FF0010806E016B94FF06B
:10268000000802E04FF0FF386642B44201DD254603
:1026900000E03546002004901EE0019A91B2029AB3
:1026A00090B2129A00F01FF8039820440390B344AC
:1026B0000398A84205DD0398401B03900298384414
:1026C0000290AB4504DDABEB050B01984044019053
:1026D0000498401C80B20490691C04988842DCDB9A
:1026E00009B0BDE8F08F70B504460D4616462B467E
:1026F000224629462046FFF767FF304600F084FA5D
:1027000070BDF8B504460D4616461F4600200090E1
:10271000601C82B22B4629462046FFF78EFF062C0E
:1027200007D000203B463246294600902046FFF75E
:1027300084FFF8BD2DE9F04704460D4616461F46B6
:10274000DDF820A03B46324629462046FFF73CFFF5
:10275000A8460EE0A14606E0504600F055FA09F101
:1027600001001FFA80F9B145F6DD08F101001FFAFA
:1027700080F8B845EEDDBDE8F08700002DE9F043B4
:1027800087B04FF6FF70FFF740FF4FF6FF70294903
:10279000088029A20021042002F09AF92D4800683F
:1027A000FDF7B6FF2CA2CDE900011421502002F064
:1027B0008FF92A490869FDF7ABFF04460D46274902
:1027C000C868FDF7A5FF06460F4624498868FDF74F
:1027D0009FFF23A28DE8C300CDE9044528210420F2
:1027E00002F076F94FF6E070502304225521009054
:1027F0000120FFF722FF4FF6E070552307225021FA
:1028000000900420FFF719FF4FF6E0707D230422AB
:10281000502100901046FFF710FF4FF6E07067233D
:102820007D22194600900420FFF707FF07B0BDE89E
:10283000F0830000E4020020B5B1C7B0D7AACBD91D
:10284000A3BA20202E20200AC9E8B6A8D7AACBD93F
:10285000A3BA0A000000002025660000040300203F
:102860004B503D2566204B493D0A2566204B443D93
:102870002566000008B54FF6FF70FFF7C6FE4FF65D
:10288000FF701E4908801EA20021042002F020F9DA
:102890002148038821A21421502002F019F94FF693
:1028A000E070282304222D2100900120FFF7C5FEAF
:1028B0004FF6E0702D230722282100900420FFF717
:1028C000BCFE4FF6E0707D230422282100901046C4
:1028D000FFF7B3FE4FF6E07014237D22282100900D
:1028E0000420FFF7AAFE4FF6E0707D231A46194632
:1028F00000900420FFF7A1FE08BD0000E4020020C4
:10290000D2D1D7AABDC7B6C83A2020300AC9E8B686
:10291000A8BDC7B6C83A0A0004000020256400001C
:102920002DE9F84F05460F4616469A46DDF828B0C1
:102930000095702D01DC702F01DDBDE8F88FA6F148
:102940002000C6B207F10F0083B2E81D82B23946FB
:102950002846FFF739FEBAF1000F27D1002422E004
:1029600004EB0610234911F800904FF0000812E024
:1029700009F0010018B1584600F046F903E01E487E
:10298000008800F041F94FEA6909681C85B208F136
:10299000010000F0FF08B8F1080FE9DB009D781C8A
:1029A00087B2601CC4B2102CDADB21E000241DE0E9
:1029B00004EB06100F4911F800904FF0000810E0EA
:1029C00009F0010038B13A1991B205EB080290B252
:1029D0005A46FFF788FE4FEA690908F1010000F046
:1029E000FF08B8F1080FEBDB601CC4B2102CDFDB72
:1029F00000BFA2E7384F0008E40200202DE9FF5F86
:102A000082468B461546DFF8E4804CF2BD720E9884
:102A1000811A90422ED015DC4BF2C702A0EB0201C6
:102A200090421DD008DCA0F52840A0F1B600F8B116
:102A3000A0F22120F8B915E0EE290FD0A1F6DC11A3
:102A4000C9B91DE0F92917D0A1F61520B0B1A0F23F
:102A5000F97048B1A0F6FE6068B907E0002411E003
:102A600001240FE002240DE003240BE0042409E01C
:102A7000052407E0062405E0072403E0082401E01C
:102A8000092400BF00BF0BEB0500401E83B20AEB18
:102A90000500401E82B259465046FFF795FD05FBE2
:102AA00005F0C11700EB5171C1F3C70904FB098898
:102AB000002717E000260FE098F800000121B14040
:102AC000084018B1039800F09FF803E00848008818
:102AD00000F09AF8701CC6B2082EEDDB08F1010870
:102AE000781CC7B24F45E5DBBDE8FF9F24000020FE
:102AF000E40200202DE9F84F06468A4690461D461E
:102B0000DDF828904FF0000B002431E0281B401E18
:102B1000C1B20A2002F006F9B8FBF0F00A21B0FBBE
:102B2000F1F201FB1207BBF1000F11D1681EA042A8
:102B30000EDD5FB9082101FB046188B20023202269
:102B40005146CDF80090FFF7EBFE0FE04FF0010B80
:102B500007F13001CAB2082101FB046188B20023E9
:102B60005146CDF80090FFF7DBFE00BF601CC4B2F9
:102B7000AC42CBDBBDE8F88F2DE9F84F06468A461C
:102B800017461C46DDF828801E493846FDF756FBDF
:102B90000090FDF790FD1FFA80FB00252EE0601BE2
:102BA000401EC1B20A2002F0BDF8BBFBF0F00A21C2
:102BB000B0FBF1F201FB1209A01EA8420FD1A11E29
:102BC000082202FB016188B200232E225146CDF873
:102BD0000080FFF7A5FE681CC5B2601CC4B209F1F5
:102BE0003001CAB2082101FB056188B200235146B9
:102BF000CDF80080FFF794FE681CC5B2A542CEDB7D
:102C0000BDE8F88F0000C84210B504468021054891
:102C1000FFF78CFA201200F01FF8E0B200F01CF869
:102C200010BD00000014014010B504468021034887
:102C3000FFF77CFA204600F00FF810BD00140140A9
:102C400010B5044680210348FFF76EFA204600F0D5
:102C500003F810BD0014014070B50446402114482B
:102C6000FFF762FA00251BE04FF480611148FFF77F
:102C70005BFA04F0800028B14FF400610D48FFF7C3
:102C800055FA04E04FF400610A48FFF74DFA4FF49B
:102C900080610848FFF74AFA6006040E681CC5B256
:102CA000082DE1DB40210248FFF740FA70BD00002B
:102CB00000140140000C014008B50121102000F073
:102CC00021FAFF20ADF8000010208DF8030003204A
:102CD0008DF8020069460448FFF753F9FF210248C6
:102CE000FFF724FA08BD00000010014008B50121DB
:102CF000382000F007FA4FF44060ADF800001020D3
:102D00008DF8030003208DF8020069469248FFF712
:102D100038F94FF440619048FFF708FAE020ADF829
:102D2000000010208DF8030003208DF80200694692
:102D30008A48FFF726F9E0218848FFF7F7F94FF4B2
:102D40008070ADF8000010208DF8030003208DF88E
:102D5000020069468248FFF714F94FF480718048F9
:102D6000FFF7E4F94FF480717D48FFF7DDF9C820E3
:102D700001F002FC4FF480717948FFF7D7F9C820C1
:102D800001F0FAFB20217548FFF7D0F9C82001F0C7
:102D9000F3FB1120FFF754FF782001F0EDFBB12089
:102DA000FFF74EFF0220FFF73FFF3520FFF73CFF04
:102DB0003620FFF739FFB220FFF742FF0220FFF76E
:102DC00033FF3520FFF730FF3620FFF72DFFB3200C
:102DD000FFF736FF0220FFF727FF3520FFF724FF1C
:102DE0003620FFF721FF0220FFF71EFF3520FFF7F7
:102DF0001BFF3620FFF718FFB420FFF721FF032049
:102E0000FFF712FFC020FFF71BFFA220FFF70CFF08
:102E10000220FFF709FF8420FFF706FFC120FFF71C
:102E20000FFFC520FFF700FFC220FFF709FF0D20AD
:102E3000FFF7FAFE0020FFF7F7FEC320FFF700FFC1
:102E40008D20FFF7F1FE2A20FFF7EEFEC420FFF7EA
:102E5000F7FE8D20FFF7E8FEEE20FFF7E5FEC52028
:102E6000FFF7EEFE0A20FFF7DFFE3620FFF7E8FE51
:102E7000A820FFF7D9FEE020FFF7E2FE1220FFF7BF
:102E8000D3FE1C20FFF7D0FE1020FFF7CDFE182048
:102E9000FFF7CAFE3320FFF7C7FE2C20FFF7C4FE62
:102EA0002520FFF7C1FE2820FFF7BEFE2820FFF7F0
:102EB000BBFE2720FFF7B8FE2F20FFF7B5FE3C2012
:102EC000FFF7B2FE0020FFF7AFFE0320FFF7ACFED6
:102ED0000320FFF7A9FE1020FFF7A6FEE120FFF771
:102EE000AFFE1220FFF7A0FE1C20FFF79DFE102072
:102EF000FFF79AFE1820FFF797FE2D20FFF794FEAC
:102F00002820FFF791FE2320FFF78EFE2820FFF7F1
:102F10008BFE2820FFF788FE2620FFF785FE2F2056
:102F2000FFF782FE3B20FFF77FFE0020FFF77CFECD
:102F30000320FFF779FE0320FFF776FE1020FFF74E
:102F400073FE3A20FFF77CFE0520FFF76DFE292077
:102F5000FFF776FE08BD0000000C014000140140A0
:102F60000010014000BFFEE77047000070B500216F
:102F700000230F22C47804B3154C246804F4E064E1
:102F8000C4F5E064210AC1F10403CA40447804FA9C
:102F900003F184781440214309010E4C0678A155B1
:102FA000047804F01F050124AC4005786D11AD00D4
:102FB00005F1E025C5F8004109E0047804F01F059B
:102FC0000124AC40044D0678761145F8264070BDCA
:102FD0000CED00E000E400E080E100E00249014384
:102FE000024A1160704700000000FA050CED00E095
:102FF000704700002DE9F04704460D462F48046055
:103000004560024651681068FDF712F92B49486186
:10301000084681694FF08040FDF710F98146274A44
:103020005169D069FDF7B2F882464946FDF700F9CB
:103030008046224801694046FDF700F906461F4ACE
:103040005169D068FDF7FAF881461C4A91695069C8
:10305000FDF7EEF88246194881685046FDF7EEF814
:1030600080464946FDF792F807463146FDF78EF84F
:103070001249C86308468069C8610846406988618A
:103080000846C16B0E480068FDF780F80C490860DF
:103090000C490B480068FDF7A5FB03D20948084915
:1030A000086008E0002106480068FDF791FB02D2A5
:1030B000002003490860BDE8F087000004030020F9
:1030C0002000002000007A44002005490860486084
:1030D00048618861C8610861C8608860C8637047DA
:1030E0000403002029B1064AD2690243044BDA6185
:1030F00004E0034AD2698243014BDA617047000061
:103100000010024029B1064A92690243044B9A61B9
:1031100004E0034A92698243014B9A6170470000C0
:103120000010024030B500210022002400232D4D64
:103130006D6805F00C0121B1042905D0082923D1BF
:1031400005E0294D056022E0274D05601FE0254D73
:103150006D6805F47012234D6D6805F48034022506
:1031600005EB92421CB9214D554305600BE01D4D06
:103170006D6805F400351DB11C4D5543056002E036
:10318000194D5543056002E0174D056000BF00BFB3
:10319000144D6D6805F0F0010909154D6B5C05686B
:1031A000DD4045600F4D6D6805F4E061090A104D82
:1031B0006B5C4568DD4085600A4D6D6805F46051C3
:1031C000C90A0B4D6B5C4568DD40C560054D6D68F7
:1031D00005F44041890B074D6B5CC568B5FBF3F501
:1031E000056130BD0010024000127A0000093D0068
:1031F0000A0000201A00002008B54FF40060ADF866
:10320000000048208DF8030069460248FEF7B9FE29
:1032100008BD0000000C014008B54FF40060ADF897
:10322000000003208DF8020010208DF8030069468D
:103230000148FEF7A6FE08BD000C014070470000E3
:103240002DE9F0478AB04FF0000A0FE0FE4810F871
:103250000A006F2806D1FC4981F82400642001F09F
:103260008BF906E00AF1010000F0FF0ABAF10A0F3B
:10327000ECDB00BFF44890F824006F287ED14FF0BB
:10328000000A11E2F04810F80A00702813D0EE4846
:1032900010F80A0069280ED0EB4810F80A006428DC
:1032A00009D0E94810F80A00732804D0E64810F85D
:1032B0000A0061287DD1E44810F80A00692867D027
:1032C00004DC612876D0642861D1BEE0702802D089
:1032D0007328F9D114E1DC4A0AF10501515CA1F12E
:1032E0003000FDF7B1F90646D84AD94BFDF7BDF8D5
:1032F00004460D46D44A0AF10401515CA1F13000A4
:10330000FDF7A2F90646D34AD34BFDF7AEF8CE4AF5
:10331000CDE904010AF10201515CA1F13000FDF791
:1033200093F906460F46C84A0AF10101515CA1F122
:103330003000FDF789F980460022C84BFDF795F86B
:1033400032463B46CDE90001FCF7E8FFCDE902013A
:10335000DDE90423FCF7E2FF22462B46CDE9060116
:10336000FCF7DCFFCDE90801FDF716FABC498860DF
:103370008868BC49FCF762FF054600E0A2E1FDF762
:103380009AF90446022221460020FEF7BDFD30E1F5
:10339000AD4A0AF10501515CA1F13000FDF754F985
:1033A0000446AA4AAA4BFDF760F8A74ACDE90801EE
:1033B00001E075E1FFE00AF10401515CA1F1300088
:1033C000FDF742F90446A34AA34BFDF74EF89E4A87
:1033D000CDE904010AF10201515CA1F13000FDF7D1
:1033E00033F904460D46984A0AF10101515CA1F1F6
:1033F0003000FDF729F90022984BCDE90001FDF7D7
:1034000034F8064622462B46FCF788FFCDE9020138
:10341000DDE90423FCF782FFCDE90601DDE908239D
:10342000FCF77CFF8046FDF7B7F98D49C860C86896
:103430008C49FCF703FF0546FDF73DF904460222DF
:1034400021461046FEF760FDD3E07F4A0AF10501F0
:10345000515CA1F13000FDF7F7F806467B4A7C4B42
:10346000FDF703F804460D46774A0AF10401515C62
:10347000A1F13000FDF7E8F80646764A764BFCF7F6
:10348000F4FF714ACDE904010AF10201515CA1F196
:103490003000FDF7D9F8804689466B4A0AF10101F0
:1034A000515CA1F13000FDF7CFF8064600226B4BCE
:1034B000FCF7DBFF42464B46CDE90001FCF72EFF4F
:1034C000CDE90201DDE90423FCF728FF22462B4663
:1034D000CDE90601FCF722FFCDE90801FDF75CF913
:1034E0005F49086108695F49FCF7A8FE0546FDF7DA
:1034F000E2F80446022221460420FEF705FD78E0AA
:10350000514A0AF10501515CA1F13000FDF79CF828
:1035100004464E4A4E4BFCF7A8FF4B4ACDE9060144
:103520000AF10401515CA1F13000FDF78DF8044669
:10353000484A494BFCF799FF434ACDE902010AF199
:103540000201515CA1F13000FDF77EF804460D4602
:103550003D4A0AF10101515CA1F13000FDF774F818
:10356000804600223D4BFCF780FF064622462B4654
:10357000FCF7D4FECDE90001DDE90223FCF7CEFE25
:10358000CDE90401DDE90623FCF7C8FECDE9080119
:10359000FDF702F934490860324933480068FCF706
:1035A0004DFE0546FDF787F8044602222146062017
:1035B000FEF7AAFC1DE024490AF10100085C30383E
:1035C00064214843204A0AF10201515C303901EB81
:1035D000810100EB41010AF10300105C303808441E
:1035E000224908800222084601880820FEF78CFC48
:1035F00000BF00BF1E480078052807D11B4803887C
:103600001CA21421502001F063FA49E0164800681A
:10361000FDF77EF818A2CDE900011421502001F039
:1036200057FA0F490869FDF773F804460D460C492F
:10363000C868FDF76DF806460F4609498868FDF72A
:1036400067F80EA224E000006C0300207B14AE4754
:10365000E17A843F9A9999999999B93F0000244059
:10366000040300200000C8420000002004000020E5
:10367000EA02002025640000256600004B503D252D
:1036800066204B493D0A2566204B443D25660000D7
:103690008DE8C300CDE904452821042001F018FA83
:1036A0000AF1010000F0FF0ABAF1250FFFF6EAADBA
:1036B00006A001F0CFFA25210548FCF75CFD0020AB
:1036C000044908700AB0BDE8F08700004F4B0000C5
:1036D0006C030020FE02002010B500F001F810BDC0
:1036E0000CB50020019000903348006840F4803011
:1036F0003149086000BF3048006800F40030009095
:103700000198401C0190009818B90198B0F5A06F7D
:10371000F1D12948006800F4003010B10120009078
:1037200001E0002000900098012843D12348006860
:1037300040F01000214908600846006820F00300AE
:1037400008600846006840F0020008601A484068B7
:10375000194948600846406848600846406840F497
:10376000806048600846406820F47C104860084645
:10377000406840F4E81048600846006840F08070F7
:10378000086000BF0C48006800F000700028F9D005
:103790000948406820F0030007494860084640682F
:1037A00040F00200486000BF0348406800F00C0091
:1037B0000828F9D10CBD0000001002400020024092
:1037C000042808D14FF0E021096941F004014FF0CD
:1037D000E022116107E04FF0E021096921F00401C6
:1037E0004FF0E022116170477047000010B50446A9
:1037F0006FF00400FFF7E4FFE11704EB5171C1F330
:10380000C701074A11701046007800EB4001C1EB78
:10381000C0104FF6FF7101EAC0000249088010BDD8
:10382000FA020020FC02002010B51348006840F0A6
:1038300001001149086008464068104908400E49D7
:103840004860084600680E4908400B490860084671
:10385000006820F4802008600846406820F4FE00DC
:1038600048604FF41F008860FFF736FF4FF000609C
:103870000449086010BD0000001002400000FFF87D
:10388000FFFFF6FE08ED00E0F0B50C4615460022FD
:103890000021068C4FF6FE773E400684028B018C99
:1038A0004FF60C7632407E1C06EA03162E43324356
:1038B000104EB0420ED0104EB0420BD0B0F1804F3F
:1038C00008D00E4EB04205D00D4EB04202D00D4E83
:1038D000B04206D14FF6FD76314044F00106314347
:1038E00005E04FF6F576314044F00106314302839E
:1038F0000184F0BD002C0140003401400004004070
:1039000000080040000C0040F0B50C4615460022AF
:1039100000210026078C4FF6EF7C07EA0C0707848E
:10392000028B018C4FF6FF7707EA041640F6FF473B
:103930003A404FF6FF7707EA03373A434FF6FF77EF
:1039400007EA05273A43114FB8420ED0104FB8424C
:103950000BD0B0F1804F08D00E4FB84205D00E4FBB
:10396000B84202D00D4FB84206D14FF6DF7739404A
:1039700046F01007394305E04FF65F77394044F0D1
:103980001007394302830184F0BD0000002C014080
:10399000003401400004004000080040000C0040DA
:1039A000F0B50C461546002200210026078C4FF684
:1039B000FF6C07EA0C070784828B018C4FF6FF77B8
:1039C00007EA04264FF60C773A404FF6FF7707EAEE
:1039D00003172F433A43114FB8420ED0104FB8424D
:1039E0000BD0B0F1804F08D00E4FB84205D00E4F2B
:1039F000B84202D00D4FB84206D14FF6FF573940BA
:103A000046F48077394305E04FF2FF57394044F4DC
:103A10008077394382830184F0BD0000002C01408F
:103A2000003401400004004000080040000C004049
:103A3000F0B50C461546002200210026078C4EF6F4
:103A4000FF7C07EA0C070784828B018C4FF6FF7717
:103A500007EA043640F6FF473A404FF6FF7707EA99
:103A600005273A434FF6FF7707EA03373A43114FEA
:103A7000B8420ED0104FB8420BD0B0F1804F08D0F2
:103A80000E4FB84205D00E4FB84202D00D4FB8428B
:103A900006D14DF6FF77394046F48057394305E0AB
:103AA00047F6FF57394044F48057394382830184F5
:103AB000F0BD0000002C0140003401400004004033
:103AC00000080040000C004030B589B005460C46A7
:103AD00001210420FFF716FB01210846FFF702FB36
:103AE00001210846FFF70EFB0420ADF80400032077
:103AF0008DF8060018208DF8070001A91748FEF779
:103B000040FA01211648FEF7C7FAADF81C50ADF88F
:103B100018400020ADF81E00ADF81A0006A94FF0BD
:103B2000804000F089FA6020ADF808000020ADF870
:103B300010000120ADF80A0002A9800700F0F2F998
:103B40000821C80600F03EFA0121880700F008F9B4
:103B50000121880700F013F909B030BD00080140C9
:103B60000001180030B589B005460C46012110202F
:103B7000FFF7C8FA01210220FFF7B4FA0121084635
:103B8000FFF7C0FA4020ADF8040003208DF80600CE
:103B900018208DF8070001A91748FEF7F2F9012156
:103BA0001648FEF779FAADF81C50ADF81840002021
:103BB000ADF81E00ADF81A0006A9114800F03CFA55
:103BC0006020ADF808000020ADF810000120ADF82D
:103BD0000A0002A90A4800F04FF90821084800F03D
:103BE00097F90121064800F0BBF80121044800F0D4
:103BF000C6F809B030BD000000100140000C1A00EA
:103C00000004004010B50121074800F0C4F830B1AD
:103C100006480088801C05490880FEF721FC012128
:103C2000014800F0A9F810BD00080040E60200209D
:103C30007FB505460C4601210420FFF753FAADF885
:103C40000850ADF804400020ADF80A00ADF80600B9
:103C500001A90F4800F0F0F9012211460C4800F0CC
:103C600001F901210A4800F087F81E208DF80000B4
:103C700001208DF801008DF802008DF803006846E0
:103C8000FFF774F90121024800F079F87FBD0000C8
:103C90000008004030B589B005460C4601210420DB
:103CA000FFF730FA01210820FFF71CFA0120ADF8D8
:103CB000040028208DF8070001A91D48FEF761F9CE
:103CC000ADF81C50ADF818400020ADF81E00ADF85E
:103CD0001A0006A9174800F0AFF90020ADF80C0053
:103CE0000220ADF81400ADF80E000020ADF812006F
:103CF0000120ADF8100003A90E4800F05DF8012284
:103D000003210C4800F0AEF832208DF808000020A6
:103D10008DF809008DF80A0001208DF80B0002A82B
:103D2000FFF724F90121034800F029F809B030BD5C
:103D300000080140000C004010B50221064800F0C8
:103D40002AF820B105480088401C04490880032156
:103D5000014800F011F810BD000C00401E000020CA
:103D600021B1028842F08002028004E002884FF60E
:103D70007F731A4002807047CA430282704721B1A4
:103D8000028842F00102028004E002884FF6FE73CE
:103D90001A400280704730B50246002000230024FC
:103DA000158A05EA0103958905EA010413B10CB1EE
:103DB000012000E0002030BD70B505460C462448C7
:103DC00085420ED0234885420BD0B5F1804F08D0F4
:103DD0002148854205D02148854202D020488542AD
:103DE00000D100E000BF208850B92389A2886188F3
:103DF0002846FFF749FDE188284600F0F0F825E065
:103E0000208804280AD12389A28861882846FFF7E0
:103E10007BFDE188284600F0EBF817E020880828B1
:103E20000AD12389A28861882846FFF7B9FDE18875
:103E3000284600F0EAF809E02389A288618828462C
:103E4000FFF7F6FDE188284600F0E8F870BD0000B5
:103E5000002C0140003401400004004000080040F4
:103E6000000C00401AB183890B43838102E08389EF
:103E70008B4383817047000070B50024002200232B
:103E8000058C4FF6FE7635400584028C8388048BC2
:103E90004FF68F752C40B51E2C400D882C43751E97
:103EA0002A400D892A434D882A43144DA8420BD03D
:103EB000134DA84208D0134DA84205D0124DA84278
:103EC00002D0124DA84213D14FF6F7752A404D8902
:103ED0002A434FF6FB752A408D882A434FF6FF652B
:103EE0002B404FF6FF552B408D892B43CD892B431B
:103EF00083800483CD888586028470BD002C0140B8
:103F000000340140004001400044014000480140AD
:103F10000A460021018B4FF6F773194011430183C4
:103F20007047000070B5002400220023058C4FF676
:103F3000FF6635400584028C8388848B4FF68F752D
:103F40002C404FF6FC752C400D882C434FF6FF5546
:103F50002A400D894FF6FF7606EA05252A434D884B
:103F600006EA05252A43154DA84202D0144DA84261
:103F70001DD14FF2FF752A404D894FF6FF7606EAB4
:103F800005252A434FF6FF352A408D8806EA052588
:103F90002A434EF6FF752B404DF6FF752B408D8959
:103FA00006EA05152B43CD8906EA05152B438380C8
:103FB0008483CD888587028470BD0000002C014079
:103FC000003401400A460021818B4FF6F7731940F7
:103FD0001143818370478186704781877047028BC8
:103FE0004FF6F3731A400283028B0A430283704731
:103FF000028B4FF2FF331A400283028B4FF6FF739E
:1040000003EA01231A4302837047828B4FF6F3734E
:104010001A408283828B0A4382837047828B4FF2DD
:10402000FF331A408283828B4FF6FF7303EA01232A
:104030001A43828370470000002202881D4B984279
:104040000ED01D4B98420BD0B0F1804F08D01B4BC7
:10405000984205D01A4B984202D01A4B984204D18C
:104060004FF68F731A404B881A43174B984207D06C
:10407000164B984204D04FF6FF431A40CB881A43A0
:1040800002808B8883850B8803850A4B98420BD06E
:10409000094B984208D00E4B984205D00D4B9842E0
:1040A00002D00D4B984201D10B7A03860123838203
:1040B00070470000002C0140003401400004004023
:1040C00000080040000C00400010004000140040B8
:1040D00000400140004401400048014010B540F25A
:1040E0002551764800F072F9002872D0734800F02C
:1040F00029FAC4B272480078052803D070480078C5
:10410000062866D16F48007842280FDD6D48007898
:104110004D280BDA6F216C4802780078401C6A4BFE
:1041200018706A4881540020664908706548007814
:10413000132810DB6348007842280CDC62480178C1
:104140000078401C604A1070604844545D48007814
:104150000A305C4908703D2C5FD15A4800780A2823
:104160005BDD584800780B38072851D2DFE800F0B3
:10417000041350502232410052480078083051490F
:1041800008707321504802780078401C4E4B18701C
:104190004E48815440E04B4800782130494908702E
:1041A0006121494802780078401C474B1870474805
:1041B000815431E043480078401D42490870702125
:1041C000414802780078401C3F4B18703F488154AA
:1041D00022E06EE03B480078401D3A4908706921B2
:1041E000394802780078401C374B187037488154A2
:1041F00012E034480078401D32490870642132488A
:1042000002780078401C304B18703048815403E02D
:1042100000202C49087000BF00BF2A480078012800
:1042200003D02848007805282FD1692C1CD004DC45
:10423000612C07D0642C23D11CE0702C0ED0732C81
:104240001ED105E01F4800780B301E4908701BE0A6
:104250001C4800780A301B49087015E0194800789E
:104260000A30184908700FE0164800780B301549DD
:10427000087009E0134800780C301249087003E018
:1042800000201049087000BF00BF0E48007880B9B8
:104290006B2C07D0732C0BD10A480078401C0949BD
:1042A000087005E007480078401D0649087000BF07
:1042B00000BF4021014800F067F810BD0038014000
:1042C000EA020020FF020020FE0200206C03002012
:1042D00010B586B0044601210420FEF713FF01212A
:1042E0008803FEF70FFF01210846FEF70BFF4FF48E
:1042F0000070ADF8140003208DF8160018208DF81A
:10430000170005A91E48FDF73CFE4FF48060ADF88C
:10431000140004208DF8170005A91948FDF731FE97
:1043200001940020ADF80800ADF80A00ADF80C00CB
:10433000ADF810000C20ADF80E0001A9114800F0F6
:1043400095F801210F4800F028F840210D4800F0B1
:104350001BF8012240F225510A4800F061F825209F
:104360008DF8000003208DF801008DF80200012077
:104370008DF803006846FEF7F9FD06B010BD000099
:10438000000801400038014001F40072B2F5007FDE
:1043900000D100BFCA430280704721B1828942F434
:1043A0000052828104E082894DF6FF731A408281B7
:1043B000704702460020B1F5007F00D100BF13888E
:1043C0000B400BB1012000E00020704770B50246A1
:1043D000002400230025002040F66A16B14200D1D7
:1043E00000BFC1F3421501F01F03012606FA03F3D3
:1043F000012D02D19689334006E0022D02D1168AA2
:10440000334001E0968A33400C12012606FA04F488
:104410001688344013B10CB1012000E0002070BDBB
:10442000F0B50346002400260025002040F66A1758
:10443000B94200D100BF1846C1F3421401F01F0673
:10444000012707FA06F5012C01D10C3004E0022CFB
:1044500001D1103000E014301AB107682F43076013
:1044600002E00768AF430760F0BD00002DE9F047A8
:1044700086B005460E460024A24600BFA14600278E
:10448000B08900B100BF2F462C8A4CF6FF70044063
:10449000F08804432C82AC894EF6F3100440B088B7
:1044A00031890843718908430443AC81AC8A4FF6D3
:1044B000FF400440B0890443AC8201A8FEF732FEFD
:1044C0001F48874202D1DDF810A001E0DDF80CA002
:1044D000A88900F4004040B10AEBCA0000EB0A10C2
:1044E00031684900B0FBF1F807E00AEBCA0000EBC5
:1044F0000A1031688900B0FBF1F86420B8FBF0F0D5
:1045000004012009642101FB1089A88900F40040FE
:1045100040B1322000EBC900B0FBF1F000F0070021
:10452000044308E0322000EB09106421B0FBF1F0F5
:1045300000F00F0004432C8106B0BDE8F0870000B6
:104540000038014001468888C0F308007047C1F375
:1045500008028280704700BFFEE702E008C8121F11
:1045600008C1002AFAD170477047002001E001C15C
:10457000121F002AFBD170470146114A12884A4394
:104580004FF0E0235A6100229A611A46126942F004
:1045900001021A6100BF4FF0E022106900F0010231
:1045A0001AB100F48032002AF5D04FF0E0221269EF
:1045B00022F001024FF0E0231A6100229A61704755
:1045C000FC0200200146114A12784A434FF0E023D2
:1045D0005A6100229A611A46126942F001021A6178
:1045E00000BF4FF0E022106900F001021AB100F4A0
:1045F0008032002AF5D04FF0E022126922F0010249
:104600004FF0E0231A6100229A617047FA020020FD
:1046100070B504460D46E1B20548FFF798FF00BFAC
:1046200080210348FFF7C5FE0028F9D0204670BD61
:10463000003801408CB04FF00009CA460024002029
:104640000A9083464820FFF7D1F84FF48060FEF7C8
:10465000C5FCFEF731FB4FF41650FFF739FEFEF7AD
:1046600033FDFDF7B4FBFDF7F9FBFEF73FFBFEF76B
:1046700085F8FDF7CDFE47214FF4FA60FFF7D8FA31
:1046800047214FF47A70FFF705FB47214FF47A700A
:10469000FFF768FA47214FF47A70FFF715FAECE15B
:1046A000F648007801287DD1F548008864287ADB37
:1046B000F4480088FBF7D9FF0022F34BCDE908014D
:1046C000FBF745FF07460022F04BFBF7CEFE054601
:1046D000FCF762F881460020EA490880E849088032
:1046E0000AF1010000F0FF0A4946E9480068FEF7B8
:1046F00081FCE8480068FBF7DEFF85B22946E64802
:10470000FFF769FCE24801684846FBF791FD074660
:10471000FBF7FEFF05464FF06632E04BFCF70CF866
:104720004FD8DB4801684846FBF782FD0746FBF798
:10473000EFFF05464FF06632D94BFCF715F840D82D
:104740000A94D3480068FBF7E3FF4FF06632D34B7F
:10475000CDE90201FBF783FE074688464846FBF792
:10476000D7FF3A464346CDE90401FBF778FE0546FC
:104770000022CC4BFBF779FE0022CB4BCDE90601A2
:10478000FBF770FECDE90801FBF7A9FF84B2C7482B
:104790000088401E82B22146C44800880A9BFDF76B
:1047A000B0FF01E01FE00CE0C0480088401CBF499A
:1047B0000880084600887D2803DB06200880FCF777
:1047C00025F9BAF10A0F0BDB4FF0000A4846FBF758
:1047D0009FFFB7A2CDE900010021502000F078F939
:1047E0004FF0000947E1A5480078052803D0A34809
:1047F0000078062802D1FEF723FD3CE19F480078AF
:10480000032802D09D48007800BB0021A248FFF792
:10481000E2FB00214FF08040FFF7DFFB4FF47A709E
:10482000FFF7AAFE0020044696490A9008809348A4
:104830000078032806D19F489649086005208F49D3
:10484000087018E106208D49087014E18B48007843
:104850000428C7D18A48008832287DDB8949098825
:10486000A1EB0B00FBF7F0FE0022874BCDE908011E
:10487000FBF76DFE07460022844BFBF7F6FD05466D
:10488000FBF78AFF81467F48B0F800B000207C49E2
:10489000088049468848FEF7ADFB7E480068FBF774
:1048A0000AFF85B229467C48FFF795FB0A948348A6
:1048B0000088FBF7DAFECDE9020172480088FBF7B9
:1048C000D4FE0022704BCDE90001FBF740FE054607
:1048D00000227B4BFBF7C9FD0746DDE90223FBF70E
:1048E00036FE0022774BCDE90401FBF7BEFD002226
:1048F0006D4BCDE90601FBF7B5FDCDE90801FBF7EE
:10490000EEFE84B269480088401E82B221466748A4
:1049100000880A9BFDF7F5FE64480088401C634947
:104920000880084600887D2803DB06200880FCF705
:1049300099F854480088FBF798FE0022524BCDE9C5
:104940000801FBF704FE074600225D4BFBF78DFDD7
:104950000546FBF7C4FE00E008E05B490880084616
:1049600003885AA20021502000F0B2F85348008872
:1049700000EB801080004FF4B47190FBF1F080B236
:10498000801E40490988884273DC00214248FFF7B5
:1049900022FBBE214FF08040FFF71FFB0A944748DF
:1049A0000088FBF762FE05460E4636480088FBF796
:1049B0005CFE0022344BCDE90001FBF7C8FD074641
:1049C00000223F4BFBF751FD2A463346CDE9020159
:1049D000FBF7BDFD00223B4BCDE90401FBF745FD94
:1049E0000022314BCDE90601FBF73CFDCDE9080182
:1049F000FBF775FE84B22D480088401E82B2214626
:104A00002A4800880A9BFDF77CFE28480088401C45
:104A1000264908801B480088801CFBF715FE0022F1
:104A2000194BCDE90801FBF792FD05460022244B06
:104A3000FBF71BFD0746FBF752FE234908804FF4A6
:104A40007840032300900846028800215020FEF79A
:104A500051F84FF4FA70FFF78FFD00214FF08040BE
:104A6000FFF7BBFA0020074908808346032003496B
:104A700008704FF00009FDF791FC11E6EA020020F2
:104A8000E60200201E00002000407040000024408C
:104A90000000002020000020000400406666124054
:104AA000666612C00000144000405F40080000200D
:104AB0002566000000003E43CDCCCC3D0400002024
:104AC000008076400040554006000020256400002C
:104AD0000FB4FEB504460D460026002002900BA838
:104AE0000190AEE00A980078252842D00A98007814
:104AF0000A2807D1042405F1140085B20A98401C45
:104B00000A909EE00A98007800F0800000B30A98AE
:104B100000788DF808000A98401C0A900A980078DE
:104B20008DF809000A98401C0A909DF808009DF82D
:104B3000091000EB0126B0B240F2FF7310222946A3
:104B400000902046FDF75AFF04F1100084B278E08F
:104B500040F2CF1000900A980278002329462046A0
:104B6000FDF7DEFE0A98401C0A9004F1080084B2AA
:104B700067E00A98401C0A900A980078632806D0DB
:104B8000642815D0662831D073284CD11FE00198D5
:104B900010F8041BCFB201902A462146384600F097
:104BA000CCF80A98401C0A9004F1080084B247E04F
:104BB000019880C801902A462146384600F05EF9E7
:104BC0000A98401C0A9004F1080084B238E0019869
:104BD00080C801902A462146384600F077F90A98A5
:104BE000401C0A9004F1080084B229E00198C01D1D
:104BF00020F007000190D0E90021DDF804C00CF19D
:104C0000080C1046CDF804C0FBF7C6FD07462A463F
:104C10002146384600F0AAF80A98401C0A9004F190
:104C2000280084B20CE00A9908782A46214600F050
:104C300084F80A98401C0A9004F1280084B200BF4E
:104C400000BF0A98007800287FF44CAF0190FEBCAA
:104C50005DF814FB0FB438B505A8009058E004982F
:104C60000078252808D0049908782D4900F062F9C9
:104C70000498401C04904BE00498401C0490049855
:104C80000078632806D0642810D0662822D07328C4
:104C900035D115E0009810F8041BCCB200902046E6
:104CA00000F05AF80498401C049030E0009810C8B6
:104CB0000090204600F0F0F80498401C049026E094
:104CC000009810C80090204600F026F90498401C77
:104CD00004901CE00098C01D20F007000090D0E96F
:104CE0000021009D083510460095FBF755FD044650
:104CF000204600F08DF80498401C049007E00499C9
:104D0000087800F029F80498401C049000BF00BF08
:104D1000049800780028A2D1009038BC5DF814FBFC
:104D20000003002010B50246012000E050430B00B4
:104D3000A1F10104E1B2F9D110BDF8B504460D4668
:104D4000164640F2CF1000232246314600902846F6
:104D5000FDF7E6FDF8BD000010B504460249204607
:104D600000F0E8F810BD0000000300202DE9F04F2E
:104D700087B081468A4693464846FBF783FC0590F8
:104D80000598FBF753FC07464946FBF754FA0646DD
:104D90001D49FBF753FA0546FBF774FC0446002057
:104DA00004900A2094FBF0F100FB1140052804DB7D
:104DB0000A2094FBF0F0441C02E00A2094FBF0F47B
:104DC0002046FBF741FC07460022104BFBF7BFFBD8
:104DD00005460E460598FBF737FC2A463346CDE9D3
:104DE0000001FBF79BFACDE90201FBF7D5FC04902B
:104DF0004FF478400423009059465046049AFDF73A
:104E0000BBFE07B0BDE8F08F00007A4400005940B7
:104E10002DE9F04705462846FBF734FC804640461E
:104E2000FBF704FC81462946FBF705FA07461149C2
:104E3000FBF704FA0646FBF725FC04460A2094FB20
:104E4000F0F100FB1140052804DB0A2094FBF0F090
:104E5000441C02E00A2094FBF0F4404600F01CF8E9
:104E600005492E2000F066F8204600F015F8BDE850
:104E7000F087000000007A4400030020F8B50446E3
:104E80000D4616464FF47840A2B2032331460090F7
:104E90002846FDF72FFEF8BD70B5044604B970BD75
:104EA0000A2094FBF0F52846FFF7F6FF0A2094FB52
:104EB000F0F100FB11403030C5B20349284600F044
:104EC00039F800BFEBE7000000030020F8B5044606
:104ED0000D4616461BE0702D03DD002506F110007F
:104EE00086B2702E06DD0020054606464FF4784057
:104EF000FDF78BFB40F2CF10009022780023314663
:104F00002846FDF70DFD05F1080085B2641C2078E8
:104F10000028E0D1F8BD000010B5044604E0207878
:104F2000034900F007F8641C20780028F7D110BD71
:104F300000030020FFF76CBB000000000000000031
:104F40000000000000000000000000080808080839
:104F5000080800001818000000486C241200000027
:104F600000000000000000000000002424247F1244
:104F700012127F12121200000000081C2A2A0A0CCA
:104F80001828282A2A1C08080000002225151515B3
:104F90002A585454542200000000000C1212120A25
:104FA00076252911916E000000060604030000001A
:104FB0000000000000000000004020101008080859
:104FC0000808081010204000000204080810101003
:104FD00010101008080402000000000008086B1CF4
:104FE0001C6B08080000000000000000080808080A
:104FF0007F08080808000000000000000000000012
:10500000000000000606040300000000000000008D
:10501000FE00000000000000000000000000000092
:105020000000000006060000000080404020201024
:105030001008080404020200000000182442424242
:105040004242424224180000000000080E080808EE
:1050500008080808083E00000000003C42424220C8
:1050600020100804427E00000000003C424220184C
:1050700020404042221C0000000000203028242450
:1050800022227E20207800000000007E0202021A08
:1050900026404042221C0000000000382402021A70
:1050A00026424242241800000000007E22221010F6
:1050B00008080808080800000000003C424242249A
:1050C00018244242423C00000000001824424242A0
:1050D00064584040241C0000000000000000181824
:1050E0000000000018180000000000000000000888
:1050F0000000000000080804000000402010080420
:1051000002040810204000000000000000007F00A2
:1051100000007F00000000000000000204081020D2
:1051200040201008040200000000003C42424640BB
:1051300020101000181800000000001C225A5555BD
:1051400055552D42221C00000000000808181414B8
:10515000243C224242E700000000001F2222221EBF
:1051600022424242221F00000000007C4242010114
:1051700001010142221C00000000001F22424242A5
:1051800042424242221F00000000003F4212121E13
:1051900012120242423F00000000003F4212121E63
:1051A00012120202020700000000003C222201014C
:1051B00001712122221C0000000000E7424242420D
:1051C0007E42424242E700000000003E0808080814
:1051D00008080808083E00000000007C10101010AD
:1051E000101010101010110F0000007722120A0E7C
:1051F0000A121222227700000000000702020202B7
:1052000002020202427F0000000000773636363686
:105210002A2A2A2A2A6B0000000000E346464A4A4E
:1052200052525262624700000000001C224141417C
:1052300041414141221C00000000003F42424242E5
:105240003E020202020700000000001C2241414110
:1052500041414D53321C60000000003F4242423E3B
:105260001212222242C700000000007C42420204C7
:1052700018204042423E00000000007F4908080814
:1052800008080808081C0000000000E742424242EB
:1052900042424242423C0000000000E742422224D7
:1052A00024141418080800000000006B49494949FB
:1052B0005555362222220000000000E7422424181F
:1052C0001818242442E7000000000077222214145A
:1052D00008080808081C00000000007E21201010AB
:1052E00008040442423F0000007808080808080843
:1052F00008080808080878000000020204040808EA
:105300000810102020204040001E10101010101017
:105310001010101010101E00003844000000000093
:10532000000000000000000000000000000000007D
:1053300000000000000000FF000608000000000060
:105340000000000000000000000000000000003C21
:105350004278444242FC0000000000030202021AAC
:1053600026424242261A00000000000000000038D9
:1053700044020202443800000000006040404078CF
:105380004442424264D80000000000000000003C9B
:10539000427E0202423C0000000000F08808087EC5
:1053A00008080808083E0000000000000000007C1B
:1053B00022221C023C42423C000000030202023A4C
:1053C0004642424242E700000000000C0C00000E82
:1053D00008080808083E00000000003030000038CF
:1053E000202020202020221E000000030202027242
:1053F000120A1612227700000000000E08080808A2
:1054000008080808083E0000000000000000007FB7
:105410009292929292B70000000000000000003BC0
:105420004642424242E70000000000000000003C0B
:1054300042424242423C0000000000000000001BCB
:1054400026424242221E02070000000000000078AF
:1054500044424242447840E00000000000000077EF
:105460004C040404041F0000000000000000007C45
:1054700042023C40423E0000000000000008083E9E
:105480000808080808300000000000000000006361
:105490004242424262DC000000000000000000E7DF
:1054A000422424140808000000000000000000EB63
:1054B00049495555222200000000000000000076F6
:1054C00024181818246E000000000000000000E7F7
:1054D0004224241418080807000000000000007E81
:1054E00022100808447E000000C020202020201048
:1054F000202020202020C0001010101010101010AC
:1055000010101010101010100006080808080810DD
:1055100008080808080806000C32C2000000000055
:105520000000000000000000FFFFFFFFFFFFFFFF83
:10553000FFFFFFFFFFFFFFFFFFFFFFFFFFFFFFFF7B
:10554000FFFFFFFFBEF77DEFBAD6B6B5F39CB2946E
:10555000B39CB29434A5F7BDFBDE7DEFFFFFFFFFE8
:10556000FFFFFFFFFFFFFFFFFFFFFFFFFFFFFFFF4B
:10557000FFFFFFFFFFFFFFFFFFFFFFFFFFFFFFFF3B
:10558000FFFFFFFFFFFFFFFFFFFFFFFFFFFFFFFF2B
:10559000BEF7FBDEF39CCB5AC739042182104210C0
:1055A0004210410883184529C7390C6375AD3CE7A3
:1055B000BEF7FFFFFFFFFFFFFFFFFFFFFFFFFFFF44
:1055C000FFFFFFFFFFFFFFFFFFFFFFFFFFFFFFFFEB
:1055D000FFFFFFFFFFFFFFFFFFFFFFFFFFFF3CE7B6
:1055E000B2940842C31882100421452986318631BD
:1055F000863186314529042182104108C3180842AA
:10560000F39C3CE7FFFFFFFFFFFFFFFFFFFFFFFFF4
:10561000FFFFFFFFFFFFFFFFFFFFFFFFFFFFFFFF9A
:10562000FFFFFFFFFFFFFFFFFFFFFFFFFBDE0C633E
:10563000C318C3184529C73908420842084208421E
:1056400008420842C739C7398631863104214108EA
:105650008210CB5ABAD6FFFFFFFFFFFFFFFFFFFF0D
:10566000FFFFFFFFFFFFFFFFFFFFFFFFFFFFFFFF4A
:10567000FFFFFFFFFFFFFFFFFFFFFBDECB5A8210A4
:105680004529C73908420842094A494A494A494A0C
:10569000494A494A0842C739C739C7398631452975
:1056A00083180000C84138C6FFFFFFFFFFFFFFFF60
:1056B000FFFFFFFFFFFFFFFFFFFFFFFFFFFFFFFFFA
:1056C000FFFFFFFFFFFFFFFF7DEF8E738210452975
:1056D000C7390842094A8A523084CF7B8A52494AE4
:1056E0004A52494ACB5ACF7B0C630842C7398631AC
:1056F0004529C3180000494ABAD6FFFFFFFFFFFF44
:10570000FFFFFFFFFFFFFFFFFFFFFFFFFFFFFFFFA9
:10571000FFFFFFFFFFFFFFFFF39CC3180421C73902
:105720000842494A494A72947DEF7DEFB2944A5249
:10573000494A8A5275ADBEF7BAD64D6BC739C739DB
:1057400086314529C3184108CF7B7CE7FFFFFFFF67
:10575000FFFFFFFFFFFFFFFFFFFFFFFFFFFFFFFF59
:10576000FFFFFFFFFFFFBAD608428210C739084289
:10577000494A494A8E73FBDEFFFFBEF7BAD68E73E5
:10578000084230843CE77DEFFFFFB6B5494AC73990
:1057900086314529042141084529B6B5FFFFFFFFA1
:1057A000FFFFFFFFFFFFFFFFFFFFFFFFFFFFFFFF09
:1057B000FFFFFFFFBEF7718C410845290842494AA7
:1057C000494A4A52B294BEF7BEF7B294CF7BCF7B20
:1057D000494AB6B5F39C0C6338C6BAD60C63873910
:1057E000C73986314529C318410830847DEFFFFF52
:1057F000FFFFFFFFFFFFFFFFFFFFFFFFFFFFFFFFB9
:10580000FFFFFFFF3CE7CB5A4108C7390842494A2E
:105810004A528A52F39CFFFF7DEFC739C3180C63CD
:10582000CB5AB6B5B294CB5A75ADFAD64D6B873913
:10583000C73986314529042141088A5279CEFFFFB4
:10584000FFFFFFFFFFFFFFFFFFFFFFFFFFFFFFFF68
:10585000FFFFFFFF38C686310421C841494A494A43
:105860004A52494AB18CBEF7BEF7B294CF7BCF7B88
:10587000494A74A57DEF7CE7BEF779CE0C63C73942
:10588000C7398631452904218210452975ADBEF7F7
:10589000FFFFFFFFFFFFFFFFFFFFFFFFFFFFFFFF18
:1058A000FFFFFFFF34A5821086310842494A494A6A
:1058B0008A52494A4D6BBAD6FFFFFFFF79CE0D637E
:1058C000C739CF7B7DEFFFFFFFFF75AD0842863103
:1058D000C739863145294529C318C318B2947DEFCD
:1058E000FFFFFFFFFFFFFFFFFFFFFFFFFFFFFFFFC8
:1058F000FFFFBEF7B28C4108C7390842494A494AFE
:105900008A528A524A4AD07B7AC67BBE906BC9398A
:105910008831C939B384BBC6F8B5CC5A8631C7398A
:10592000C739863145294529C420410830843CE7E0
:10593000FFFFFFFFFFFFFFFFFFFFFFFFFFFFFFFF77
:10594000FFFF3CE78A4AC310C7390842494A494A1F
:105950004A4A4A42093A084A096B497BC67A058392
:105960004683C57AC672097B485A873188218829BF
:105970008631863145294529042141084A4ABAD64B
:10598000FFFFFFFFFFFFFFFFFFFFFFFFFFFFFFFF27
:10599000FFFFF7C582500541C7290842494A4A42DC
:1059A000494A097B889BC6B321D4A0DCE1E461EDC0
:1059B00061ED21EDA0E420DC80CB43ABC482065A2C
:1059C0004721462945290429041982108218F39C8D
:1059D0007DEFFFFFFFFFFFFFFFFFFFFFFFFFFFFF69
:1059E0007DEF4D9300A082B8C7310932494A867ACB
:1059F00043C36BEDF4F6EBFD20FD20FD60FDA0FD43
:105A0000A0FD60FD60FD20FDE0FCA0FC60F4C1DBBA
:105A1000839AC54945290419C42082380050CB6AAD
:105A2000BAD6FFFFFFFFFFFFFFFFFFFFFFFFFFFFF4
:105A3000FBEE04A100C000F0C3A0C8414942059B91
:105A400020FCA4FC69FDE8FD63FD20FD60FD60FD18
:105A500060FD20FD20FDE0FCE0FCA0FC60FC20FCE3
:105A600041D3C5494519C438826841880070495AF4
:105A700079CEFFFFFFFFFFFFFFFFFFFFFFFFFFFFED
:105A8000FBF682C000D086C146F141C845798952F3
:105A90008862866AC67AC4BBE1FC60FD60FDA0FD39
:105AA000A0FD60FD60FDE0FC60E403938472446A45
:105AB000C5414529C35841A8409800B000600C6B0F
:105AC00079CEFFFFFFFFFFFFFFFFFFFFFFFF7DEF2F
:105AD000CE83828800F8C4D80CF38AFA82E882B0B8
