:020000040800F2
:10000000980600204501000871260008791B0008A9
:100010006D260008CB0900088F3900080000000099
:10002000000000000000000000000000112900088E
:10003000C919000800000000F9260008B92D0008C1
:100040005F0100085F0100085F0100085F01000810
:100050005F0100085F0100085F0100085F01000800
:100060005F0100085F0100085F0100085F010008F0
:100070005F0100085F0100085F0100085F010008E0
:100080005F0100085F0100085F0100085F010008D0
:100090005F0100085F0100085F0100085F010008C0
:1000A0005F0100085F0100085F0100085F010008B0
:1000B0005F0100085F010008393100085F01000896
:1000C0005F0100085F0100085F0100085F01000890
:1000D0005F010008593500085F0100085F01000852
:1000E0005F0100085F0100085F0100085F01000870
:1000F0005F0100085F0100085F0100085F01000860
:100100005F0100085F0100086D3200085F01000810
:100110005F0100085F0100085F0100085F0100083F
:100120005F0100085F0100085F0100085F0100082F
:10013000DFF80CD000F00CFC00480047553A0008EE
:10014000980600200648804706480047FEE7FEE77D
:10015000FEE7FEE7FEE7FEE7FEE7FEE7FEE7FEE777
:10016000F92D000831010008D2B201E000F8012B9E
:10017000491EFBD270470022F6E710B513460A4627
:1001800004461946FFF7F0FF204610BDF0B480EAA0
:100190000102D40F4200B2EB410F02D202460846E0
:1001A00011464A0042D0C30DDDB2C1F3C752AD1AA9
:1001B000202D35DAC1F3160141F4000204B1524298
:1001C000C5F1200602FA06F12A411044B3EBD05FD4
:1001D00023D0C4B1012DA0EBC35009DCF0BC4FF01B
:1001E000004202EAC352DBB200F5000000F024BB7B
:1001F000400000F1807000EBC350A0F1807040EA35
:10020000D170490009E0490841EAC071A0EBC35030
:1002100000F50000400800EBC350F0BC00F003BB49
:100220006142012202EB4101001BF6E7F0BC70477E
:1002300081F00041AAE780F00040A7E780EA0102D0
:1002400010B502F00043400022D04A001FD0010E3A
:1002500001EB1261C0F35600C2F3560240F40000F5
:1002600042F40002A0FB022000047F39140400D0F5
:10027000401C50EA124001D44000491EC2B20C0694
:1002800004EBD010401C4008802A02D003E000207C
:1002900010BD20F00100002900DA0020184310BD35
:1002A00030B480EA010202F0004530F0004221F053
:1002B000004013D090B1C30DD40DC2F31601C0F3AA
:1002C0001600E41A41F4000140F400027D3491422A
:1002D00001D3641C00E04900002C02DA30BC00208D
:1002E00070474FF400000023914201D3891A034361
:1002F00040084FEA4101F7D151B1914202D14FF08C
:10030000004105E002D24FF0010101E06FF0010170
:1003100003EBC450284430BC00F085BA2DE9FE4FF1
:10032000804681EA0300C00F0C46009021F0004196
:1003300023F00045B8EB0200A94105D24046214612
:1003400090461C460B46024623F00040104347D01F
:10035000270DC7F30A00C3F30A510290401A019017
:1003600040286BDAC3F3130040F4801B00989246D8
:1003700020B10023D2EB030A63EB0B0B0198594623
:10038000C0F14002504600F01DFA06460D465046A8
:100390005946019A00F035FA10EB0800614100243B
:1003A00087EA115284EAE7731A4340D0009A62B395
:1003B000019A012A4FEA075215DC001B61EB02018A
:1003C0004FF0004202EA0752CDE90042001C41F51D
:1003D000801132462B4600F06CFA03B0BDE8F08F76
:1003E00040462146F9E7001B61EB0201001C41F584
:1003F000801300185B412018A2F5001747EB03019A
:1004000040EAD570B6196D4111E06D084FEA360625
:1004100045EAC0754FEA0752001B61EB0201001C60
:1004200041F5801149084FEA300000195141324628
:100430002B4603B0BDE8F04F00F02CBA0098012223
:1004400040000023D0EB020263EBE07300982146EA
:100450004FEAE074B8EB000061EB0401E9E783F0D8
:1004600000435BE781F0004158E72DE9FE4F81EA48
:10047000030404F0004421F0004100944FF0000B0D
:1004800023F0004350EA01045ED052EA03045BD03B
:10049000C3F30A54C1F30A552C44A4F2F334019473
:1004A000A0FB0254C1F3130141F48011C3F3130301
:1004B00043F4801301FB024400FB034E840A970AB5
:1004C00044EA815447EA8357A4FB076802958D0AE2
:1004D00005FB07854FEA932C04FB0C542705029D6E
:1004E0004FEA065847EA1637B5EB08056EEB070CDE
:1004F000870E920E47EA811742EA8312A7FB020198
:10050000B6EB0B0164EB00042B0D43EA0C335E18D1
:1005100044EB1C50DA465146E7FB0201C5F31304D5
:100520004FEA0B3343EA14534FEA0432019C43EA87
:100530000603A4F10C040294009CCDE900B400F081
:10054000B8F903B0BDE8F08F00200146F9E72DE9C6
:10055000F04D81EA030404F0004B21F000451446FD
:100560004FF0000A23F0004150EA050220D054EA7F
:1005700001021DD0C5F30A570246C5F31303C1F3A8
:100580001300C1F30A5640F4801543F48013A7EB1F
:100590000608101BD64608F2FD3873EB050002D39F
:1005A00008F1010801E092185B41B8F1000F03DA8D
:1005B00000200146BDE8F08D00204FF48011064672
:1005C00084460EE0171B73EB050705D3121B63EB84
:1005D000050306434CEA010C49084FEA3000921823
:1005E0005B4150EA0107EDD152EA030012D082EAE2
:1005F000040083EA0501084305D0101BAB4106D275
:100600000122002306E000224FF0004302E06FF0D9
:10061000010253101AEB06004CEB085110EB0A00D4
:1006200041EB0B01BDE8F04D00F034B9C10F80EA99
:10063000E0700844CA079623002100F0FDB8962315
:100640000022114600F0F8B80EB5C10F80EAE07044
:100650000844CA07002140F233438DE80E000A46E1
:100660000B4600F026F903B000BD0EB540F2334151
:1006700002910021CDE900110A460B4600F019F95C
:1006800003B000BD20F00040C10DC0F3160040F4DF
:1006900000007F2901DA00207047962903DCC1F1B0
:1006A0009601C8407047963988407047C1F30A5296
:1006B00010B5C1F3130140F2FF3341F480119A42A7
:1006C00001DA002010BD40F233439A42A2F23342D5
:1006D00003DC524200F085F810BD904010BD00F0E0
:1006E000004230F000400AD0C10D01F56071C0F346
:1006F000160042EA0151C20840071143704700202A
:100700000146704730B5041E71F1000404DB4FF060
:100710000044404264EB0101141E73F1000405DB48
:100720001C464FF00043524263EB04038B4208BF68
:10073000824230BD30B5041E71F1000404DB4FF07D
:100740000044404264EB0101141E73F1000405DB18
:100750001C464FF00043524263EB0403994208BF2A
:10076000904230BD01F0004330B421F0004150EA26
:10077000010206D00A0DA2F56072C1F31301002A2E
:1007800002DC30BC00207047440F44EAC104C100C1
:10079000E01830BC00EBC25000F045B8002801DB87
:1007A000C0F10040002901DBC1F1004181427047E6
:1007B000002801DBC0F10040002901DBC1F100414C
:1007C00088427047202A04DB203A00FA02F1002018
:1007D00070479140C2F1200320FA03F3194390407F
:1007E0007047202A04DB203A21FA02F000217047EA
:1007F00021FA02F3D040C2F1200291400843194689
:100800007047202A06DBCB17203A41FA02F043EA70
:10081000E07306E041FA02F3D040C2F120029140B9
:100820000843194670470029A8BF7047401C49007B
:1008300008BF20F00100704710B4B0FA80FC00FA45
:100840000CF050EA010404BF10BC704749B1CCF170
:10085000200421FA04F411FA0CF118BF01212143FC
:100860000843A3EB0C01CB1D4FEA00614FEA1020B7
:1008700042BF002010BC704700EBC3501044002959
:10088000A4BF10BC7047401C490008BF20F0010005
:1008900010BC704710B5141E73F1000408DA401C38
:1008A00041F1000192185B411A4301D120F001008F
:1008B00010BD2DE9F04D92469B4611B1B1FA81F27F
:1008C00002E0B0FA80F220329046FFF77BFF044648
:1008D0000F4640EA0A0041EA0B0153465A460843D4
:1008E00013D0114653EA010019D0C8F14002504616
:1008F000FFF777FF05460E46504659464246FFF73A
:1009000061FF084305D0012004E020463946BDE8D8
:10091000F08D0020054346EAE0762C4337430A98E1
:100920006305E40AA0EB08000022FD0A44EA4754EC
:100930000A3002D500200146E9E701051019694196
:10094000DDE9084500196941BDE8F04DA2E7000066
:10095000064C074D06E0E06840F0010394E807000C
:1009600098471034AC42F6D3FFF7E6FB444F00083B
:10097000644F000870B58C1810F8015B15F0070380
:1009800001D110F8013B2A1106D110F8012B03E028
:1009900010F8016B01F8016B5B1EF9D12B0705D430
:1009A0000023521E0DD401F8013BFAE710F8013B79
:1009B000CB1A921C03E013F8015B01F8015B521E95
:1009C000F9D5A142D8D3002070BD00BFFEE70000DA
:1009D00008B54FF6FF707D231A464E210090052082
:1009E00001F0B0FA4FF6E07067237D2219460090BF
:1009F000042001F02AFA06200149088008BD000001
:100A00000400002038B504460C2C7AD1FE4800883A
:100A100030B90020FD4908700120FB49088018E327
:100A2000F9480088122817D2DFE800F01609172CC1
:100A300041566C8196ABC0D5F0EEEDECEBEA0220AE
:100A4000F1490880002026235822194600905020A2
:100A500001F0FBF9FFF7BCFF6FE10320EA490880D2
:100A600000202623602219460090582001F0EDF95D
:100A70004FF6FF702623582219460090502001F0AF
:100A8000E4F95AE10420E04908800020262370227E
:100A900019460090682001F0D8F94FF6FF70262320
:100AA000602219460090582001F0CFF945E1052059
:100AB000D54908800020262378221946009070200E
:100AC00001F0C3F94FF6FF702623702219460090FB
:100AD000682001F0BAF930E10620CB4908800020F7
:100AE0003A232422194600901C2001F0AEF94FF65B
:100AF000FF702623782219460090702001F0A5F996
:100B00001BE11BE10720C049088000203A232C226A
:100B100019460090242001F098F94FF6FF703A230F
:100B20002422194600901C2001F08FF905E10820CD
:100B3000B549088000203A233C2219460090342011
:100B400001F083F94FF6FF703A232C2219460090EA
:100B5000242001F07AF9F0E00920AB490880002058
:100B60003A234422194600903C2001F06EF94FF6DA
:100B7000FF703A233C2219460090342001F065F9B9
:100B8000DBE00A20A049088000204E230C221946F1
:100B90000090042001F059F94FF6FF703A234422E7
:100BA000194600903C2001F050F9C6E00B20964910
:100BB000088000204E231422194600900C2001F0DA
:100BC00044F94FF6FF704E230C2219460090042082
:100BD00001F03BF9B1E00C208B49088000204E2346
:100BE0002422194600901C2001F02FF94FF6FF70C7
:100BF0004E231422194600900C2001F026F99CE0A7
:100C00006DE057E041E02BE015E0FFE70D207E4965
:100C1000088000204E232C2219460090242001F049
:100C200014F94FF6FF704E232422194600901C2021
:100C300001F00BF981E00E207349088000204E235B
:100C40005422194600904C2001F0FFF84FF6FF7037
:100C50004E232C2219460090242001F0F6F86CE077
:100C60000F206949088000204E235C22194600901D
:100C7000542001F0EAF84FF6FF704E235422194633
:100C800000904C2001F0E1F857E010205E49088008
:100C900000204E236C2219460090642001F0D5F804
:100CA0004FF6FF704E235C2219460090542001F04D
:100CB000CCF842E011205449088000204E237422D1
:100CC000194600906C2001F0C0F84FF6FF704E23DB
:100CD0006C2219460090642001F0B7F82DE0002046
:100CE000494908800120494908704FF6FF704E239A
:100CF0007422194600906C2001F0A7F84FF4784058
:100D0000009043480423282182681C2001F034FA13
:100D10004FF4784000903E4804233C21C2681846B6
:100D200001F02AFA4FF478400090394804233C211E
:100D300002694C2001F020FA00BF8AE132480088A5
:100D400012282ED2DFE800F02D092E3B506C819640
:100D5000ABC0D5F1EFEEEDECEBEA00202A490880BC
:100D600001202A4908704FF4784000902848042355
:100D7000282182681C2001F0FFF94FF47840009090
:100D8000234804233C21C268184601F0F5F94FF4CA
:100D9000784000901E4804233C2102694C2001F059
:100DA000EBF955E10120184908804FF6FF70262322
:100DB000582219460090502001F047F848E10220DF
:100DC000114908804FF6FF702623602219460090D3
:100DD000582001F03AF800202623582219460090A6
:100DE000502001F032F833E10320074908804FF624
:100DF000FF702623702219460090682001F025F824
:100E000000202623602205E0F4010020F6010020E6
:100E10001002002019460090582001F016F817E142
:100E200004208C4908804FF6FF702623782219464B
:100E30000090702001F009F8002026237022194646
:100E40000090682001F001F802E105208149088046
:100E50004FF6FF703A232422194600901C2000F020
:100E6000F4FF00202623782219460090702000F01D
:100E7000ECFFEDE00620774908804FF6FF703A233B
:100E80002C2219460090242000F0DFFF00203A2396
:100E90002422194600901C2000F0D7FFD8E007203C
:100EA0006C4908804FF6FF703A233C2219460090A7
:100EB000342000F0CAFF00203A232C22194600906B
:100EC000242000F0C2FFC3E00820624908804FF6EA
:100ED000FF703A234422194600903C2000F0B5FFF1
:100EE00000203A233C2219460090342000F0ADFF48
:100EF000AEE00920574908804FF6FF704E230C22C0
:100F000019460090042000F0A0FF00203A2344225C
:100F1000194600903C2000F098FF99E083E06DE0D6
:100F200057E041E02BE015E0FFE70A20494908803F
:100F30004FF6FF704E231422194600900C2000F04B
:100F400084FF00204E230C2219460090042000F05C
:100F50007CFF7DE00B203F4908804FF6FF704E2359
:100F60002422194600901C2000F06FFF00204E2321
:100F70001422194600900C2000F067FF68E00C2056
:100F8000344908804FF6FF704E232C2219460090FA
:100F9000242000F05AFF00204E23242219460090FE
:100FA0001C2000F052FF53E00D202A4908804FF624
:100FB000FF704E235422194600904C2000F045FF4C
:100FC00000204E232C2219460090242000F03DFFE3
:100FD0003EE00E201F4908804FF6FF704E235C2232
:100FE00019460090542000F030FF00204E23542278
:100FF000194600904C2000F028FF29E00F201549E9
:1010000008804FF6FF704E236C2219460090642032
:1010100000F01BFF00204E235C2219460090542054
:1010200000F013FF14E010200A4908804FF6FF700B
:101030004E237422194600906C2000F006FF002019
:101040004E236C2219460090642000F0FEFE00BF83
:1010500000BF38BDF401002001B590B0FB48008806
:10106000801E10283FD2DFE800F0083F72C6FEFD68
:10107000FCFBFAF9F8F7F6F5F4F3109800EB8000B2
:1010800040000D90FFF7D2FAF1490F90F148006847
:10109000FFF706F90B90FFF7F5FA80B200EB80003E
:1010A00040000C90FFF7C2FA0D90EA4801680D98D5
:1010B000FFF7C1F80E900F99FFF768F8E54908604F
:1010C000E349E4480068FFF7EBF80E90FFF7DAFA1F
:1010D00080B20F904FF478400123009014215020EB
:1010E0000F9A01F007F815E21098FFF7A8FA0F9091
:1010F000D8480068FFF7C6FA80B20A2190FBF1F2E7
:1011000001FB12000C90FFF791FA0D90D148016895
:101110000D98FFF790F80E900F99FFF737F8CD492B
:10112000086008460068FFF7ADFA80B20A2190FB1C
:10113000F1F201FB120080B20F904FF478400123CE
:101140000090142158200F9A00F0D4FFCBE710989C
:10115000FFF78BFA0022C04BCDE90801FFF7F7F942
:10116000CDE90C01BA49BB480068FFF767F8029067
:10117000FFF788FA80B20A2190FBF1F201FB12001E
:101180000390FFF761FA0022B34BCDE90401FFF7AA
:10119000DEF9CDE90801AF480068FFF7A0FACDE914
:1011A0000601DDE90823FFF75AF9CDE90A01DDE977
:1011B0000C23FFF7B3F8CDE90E01FFF7D3FAA549E9
:1011C0000860A349A3480068FFF738F80E90FFF7BE
:1011D00059FA80B20A2190FBF1F201FB120080B2B1
:1011E0000F904FF4784001230090142168200F9A4B
:1011F00000F080FFDAE31098FFF737FA0022974BF0
:10120000CDE90801FFF7A3F9CDE90C019449914814
:101210000068FFF713F80290FFF734FA80B20A2152
:1012200090FBF1F201FB12000390FFF70DFA002290
:101230008A4BCDE90401FFF78AF9CDE90801854819
:101240000068FFF74CFACDE90601DDE908230BE061
:1012500055E3F2E2BAE27EE226E2CEE196E15AE11D
:1012600002E19BE063E027E0FFF7F9F8CDE90A012E
:10127000DDE90C23FFF752F8CDE90E01FFF772FA12
:1012800074490860764973480068FEF7D7FF0E90EE
:10129000FFF7F8F980B20A2190FBF1F201FB12008E
:1012A00080B20F904FF478400123009014217020F9
:1012B0000F9A00F01FFF79E3109800EB80004000C8
:1012C0000D90FFF7B3F90F906648806860490A9067
:1012D000FEF7E6FF0B90FFF7D5F980B200EB800038
:1012E00040000C90FFF7A2F90D905E48806801461F
:1012F0000C900D98FEF79FFF0E900F99FEF746FF9A
:10130000584988600846806851490D90FEF7C8FF2B
:101310000E90FFF7B7F980B20F904FF47840012399
:10132000009028211C200F9A00F0E4FE3EE3109864
:10133000FFF785F90F904B4880680B90FFF7A2F9F3
:1013400080B20A2190FBF1F201FB12000C90FFF732
:101350006DF90D904348806801460C900D98FEF79A
:101360006AFF0E900F99FEF711FF3E49886008460C
:1013700080680E90FFF786F980B20A2190FBF1F2A7
:1013800001FB120080B20F904FF4784001230090CF
:10139000282124200F9A00F0ADFE07E31098FFF7F4
:1013A00064F900222C4BCDE90801FFF7D0F8CDE914
:1013B0000C012C48806826490190FEF73FFF0290FF
:1013C000FFF760F980B20A2190FBF1F201FB1200F5
:1013D0000390FFF739F900221F4BCDE90401FFF715
:1013E000B6F8CDE908011F4880680590FFF777F946
:1013F000CDE90601DDE90823FFF731F8CDE90A015F
:10140000DDE90C23FEF78AFFCDE90E01FFF7AAF90B
:1014100014498860084680680D490D90FEF70EFF5C
:101420000E90FFF72FF980B20A2190FBF1F201FB39
:10143000120080B20F904FF47840012300902821D1
:1014400034200F9A00F056FEB0E20000F4010020B4
:10145000000020410000002000002440000059400E
:101460000000C842100200201098FFF7FEF800228A
:10147000FE4BCDE90801FFF76AF8CDE90C01FC4805
:101480008068FC490190FEF7D9FE0290FFF7FAF858
:1014900081B20A2291FBF2F002FB10100390FFF7D9
:1014A000D3F80022F14BCDE90401FFF750F8CDE964
:1014B0000801EF4880680590FFF711F9CDE90601B2
:1014C000DDE90823FEF7CBFFCDE90A01DDE90C23B6
:1014D000FEF724FFCDE90E01FFF744F9E4498860E7
:1014E00008468068E3490D90FEF7A8FE0E90FFF7CE
:1014F000C9F880B20A2190FBF1F201FB120080B220
:101500000F904FF478400123009028213C200F9A3F
:1015100000F0F0FD4AE2109800EB800040000D90D2
:10152000FFF784F80F90D248C068D3490A90FEF7BD
:10153000B7FE0B90FFF7A6F880B200EB80004000EA
:101540000C90FFF773F80D90C948C06801460C90E5
:101550000D98FEF770FE0E900F99FEF717FEC44926
:10156000C8600846C068C4490D90FEF799FE0E9009
:10157000FFF788F880B20F904FF478400123009075
:101580003C2104200F9A00F0B5FD0FE21098FFF700
:1015900056F80F90B648C0680B90FFF773F880B20A
:1015A0000A2190FBF1F201FB12000C90FFF73EF8CC
:1015B0000D90AF48C06801460C900D98FEF73BFEB9
:1015C0000E900F99FEF7E2FDA949C8600846C06871
:1015D0000E90FFF757F880B20A2190FBF1F201FB61
:1015E000120080B20F904FF47840012300903C210C
:1015F0000C200F9A00F07EFDD8E11098FFF735F827
:1016000000229E4BCDE90801FEF7A1FFCDE90C01B8
:101610009748C06898490190FEF710FE0290FFF7C6
:1016200031F880B20A2190FBF1F201FB1200039025
:10163000FFF70AF80022914BCDE90401FEF787FF7E
:10164000CDE908018A48C0680590FFF748F8CDE960
:101650000601DDE90823FEF702FFCDE90A01DDE915
:101660000C23FEF75BFECDE90E01FFF77BF8804906
:10167000C8600846C06880490D90FEF7DFFD0E90F7
:10168000FFF700F880B20A2190FBF1F201FB120093
:1016900080B20F904FF47840012300903C211C2031
:1016A0000F9A00F027FD81E11098FEF7DEFF00227F
:1016B0006E4BCDE90801FEF74AFFCDE90C016C48FD
:1016C000C0686C490190FEF7B9FD0290FEF7DAFFA1
:1016D00080B20A2190FBF1F201FB12000390FEF7A9
:1016E000B3FF0022614BCDE90401FEF730FFCDE9E5
:1016F00008015F48C0680590FEF7F1FFCDE90601DB
:10170000DDE90823FEF7ABFECDE90A01DDE90C2394
:10171000FEF704FECDE90E01FFF724F85449C86036
:101720000846C06853490D90FEF788FD0E90FEF7FD
:10173000A9FF80B20A2190FBF1F201FB120080B2F6
:101740000F904FF47840012300903C2124200F9A01
:1017500000F0D0FC2AE1109800EB800040000D90D2
:10176000FEF764FF0F904248006943490A90FEF774
:1017700097FD0B90FEF786FF80B200EB80004000E3
:101780000C90FEF753FF0D903948006901460C900C
:101790000D98FEF750FD0E900F99FEF7F7FC3449B7
:1017A00008610846006934490D90FEF779FD0E90F6
:1017B000FEF768FF80B20F904FF47840012300904D
:1017C0003C214C200F9A00F095FCEFE01098FEF7BA
:1017D00036FF0F90264800690B90FEF753FF80B24A
:1017E0000A2190FBF1F201FB12000C90FEF71EFFA4
:1017F0000D901F48006901460C900D98FEF71BFDE7
:101800000E900F99FEF7C2FC19490861084600695D
:101810000E90FEF737FF80B20A2190FBF1F201FB38
:10182000120080B20F904FF47840012300903C21C9
:1018300054200F9A00F05EFCB8E01098FEF715FFF8
:1018400000220E4BCDE90801FEF781FECDE90C0127
:101850000748006908490190FEF7F0FC0290FEF786
:1018600011FF80B20A2190FBF1F209E0000059401B
:10187000100200200000C842000020410000244067
:1018800001FB12000390FEF7DFFE0022494BCDE979
:101890000401FEF75CFECDE90801474800690590A8
:1018A000FEF71DFFCDE90601DDE90823FEF7D7FDB0
:1018B000CDE90A01DDE90C23FEF730FDCDE90E018B
:1018C000FEF750FF3C490861084600693B490D900E
:1018D000FEF7B4FC0E90FEF7D5FE80B20A2190FB15
:1018E000F1F201FB120080B20F904FF47840012317
:1018F00000903C2164200F9A00F0FCFB56E0109809
:10190000FEF7B3FE00222E4BCDE90801FEF71FFEC5
:10191000CDE90C01284800692A490190FEF78EFCA8
:101920000290FEF7AFFE80B20A2190FBF1F201FBBC
:1019300012000390FEF788FE0022214BCDE904013E
:10194000FEF705FECDE908011B4800690590FEF78A
:10195000C6FECDE90601DDE90823FEF780FDCDE9ED
:101960000A01DDE90C23FEF7D9FCCDE90E01FEF7F3
:10197000F9FE114908610846006912490D90FEF709
:101980005DFC0E90FEF77EFE80B20A2190FBF1F224
:1019900001FB120080B20F904FF4784001230090B9
:1019A0003C216C200F9A00F0A5FB00BF00BF11B0D6
:1019B00000BD000000002440100200200000204173
:1019C000000059400000C84270472DE9F04102462E
:1019D00000250026002000230024002791F803C0E2
:1019E0000CF00F0591F803C00CF0100CBCF1000FC7
:1019F00003D091F802C04CEA050591F800C0BCF193
:101A0000000F31D0146800202BE04FF0010C0CFACD
:101A100000F3B1F800C00CEA03069E4220D1830017
:101A20004FF00F0C0CFA03F7BC4305FA03FC4CEA29
:101A3000040491F803C0BCF1280F06D14FF0010C4B
:101A40000CFA00FCC2F814C00AE091F803C0BCF123
:101A5000480F05D14FF0010C0CFA00FCC2F810C081
:101A6000401C0828D1D31460B1F800C0BCF1FF0FAE
:101A700034DD546800202EE000F1080C4FF001081E
:101A800008FA0CF3B1F800C00CEA03069E4221D11B
:101A900083004FF00F0C0CFA03F7BC4305FA03FC6C
:101AA0004CEA040491F803C0BCF1280F05D100F101
:101AB000080C08FA0CF8C2F8148091F803C0BCF1C5
:101AC000480F07D100F1080C4FF0010808FA0CF894
:101AD000C2F81080401C0828CED35460BDE8F081C5
:101AE000F0B50A46002300240021002500F000463E
:101AF000B6F1004F02D11D4EF16901E01B4E716835
:101B0000C0F3034583B200F44016B6F5401F08D178
:101B100021F07061154E766826F07066134F7E6076
:101B200012E000F48016B6F5801F06D1032606FAEF
:101B300005F4A14341F0706106E0460D360103FA59
:101B400006F6B14341F0706122B1460D360103FA49
:101B500006F6314300F00046B6F1004F02D1034EC5
:101B6000F16101E0014E7160F0BD00000000014034
:101B7000416170470161704700BFFEE710B5044640
:101B80000C2C01D00A2C0CD10A2C05D00C2C07D11E
:101B90000C20FEF737FF03E00A20FEF733FF00BFFB
:101BA00002E02046FFF758FA10BD000070B500248F
:101BB000002500BF2BE0002525E004EB440015497B
:101BC0000844405D04EB4401134A1144495D8842D6
:101BD00017D004EB44000F490844405D012806D1AA
:101BE00004EB44010D4A1144485DFFF7C7FF04EBC5
:101BF000440008490844405D04EB4401064A11448E
:101C00004855681CC5B2022DD7DD601CC4B2032C38
:101C1000D1DD70BD600200206C020020F7010020C1
:101C200008B50121802000F0F9FD0720ADF8000083
:101C300010208DF8030003208DF8020069460A4841
:101C4000FFF7C3FE0121402000F0E8FD3C20ADF885
:101C5000000010208DF8030003208DF80200694673
:101C60000248FFF7B2FE08BD001C01400018014009
:101C7000524800685249097801EB4101514A515CD0
:101C800040EA41004E49097801EB410150544B486C
:101C9000001F00684A49097801EB41011144497865
:101CA00040EA41004649097801EB4101114448707E
:101CB0004248083800684249097801EB4101114463
:101CC000897840EA41003E49097801EB410111441D
:101CD000887000203C49087032E03948007800EBF9
:101CE00040003849084438490978405C00F00F004A
:101CF0000F280AD101213248007800EB4000334A16
:101D00001044314A1278815415E02D48007800EBD8
:101D100040002C4908442C490978405C00F00F0031
:101D200048B900202649097801EB4101274A1144AE
:101D3000254A1278885424480078401C22490870AB
:101D4000214800780328C8DB1D480078401C1C4946
:101D500008700846007800F0030008700846007814
:101D600030B101280CD0022813D0032823D119E068
:101D700000201749086001201649C1F888011AE0BF
:101D8000002013490C39086001201249C1F88C0168
:101D900011E000200E490839086001200D49C1F802
:101DA000900108E000200A49091F08600120094944
:101DB000C1F8940100BF00BF7047000008812342B2
:101DC00003020020540200200402002060020020D0
:101DD00094012342000023422DE9F04104460D46C0
:101DE00016461F462A2000F0AFFAE11C88B200F028
:101DF0008FFAF11C88B200F08BFA2B2000F0A4FAC5
:101E0000A91C88B200F084FAB91C88B200F080FAEC
:101E10002C2000F099FABDE8F08170B506467F23CA
:101E20001A4600210846FFF7D7FF00240AE00025E4
:101E300004E0304600F06CFA681C85B2802DF8DBB7
:101E4000601C84B2802CF2DB70BD2DE9FF4F85B0A1
:101E500081468A460020039083460798A0EB090438
:101E60000898A0EB0A06CDF80890CDF804A0002C45
:101E700001DD012705E00CB9002702E04FF0FF3734
:101E80006442002E02DD4FF0010806E016B94FF063
:101E9000000802E04FF0FF386642B44201DD2546FB
:101EA00000E03546002004901EE0019A91B2029AAB
:101EB00090B2129A00F01FF8039820440390B344A4
:101EC0000398A84205DD0398401B0390029838440C
:101ED0000290AB4504DDABEB050B0198404401904B
:101EE0000498401C80B20490691C04988842DCDB92
:101EF00009B0BDE8F08F70B504460D4616462B4676
:101F0000224629462046FFF767FF304600F000FAD8
:101F100070BDF8B504460D4616461F4600200090D9
:101F2000601C82B22B4629462046FFF78EFF062C06
:101F300007D000203B463246294600902046FFF756
:101F400084FFF8BD2DE9F04704460D4616461F46AE
:101F5000DDF820A03B46324629462046FFF73CFFED
:101F6000A8460EE0A14606E0504600F0D1F909F17E
:101F700001001FFA80F9B145F6DD08F101001FFAF2
:101F800080F8B845EEDDBDE8F08700002DE9F84F98
:101F900005460F4616469A46DDF828B00095702D86
:101FA00001DC702F01DDBDE8F88FA6F12000C6B27C
:101FB00007F10F0083B2E81D82B239462846FFF7C9
:101FC0000BFFBAF1000F27D1002422E004EB06102A
:101FD000234911F800904FF0000812E009F00100C9
:101FE00018B1584600F094F903E01E48008800F04C
:101FF0008FF94FEA6909681C85B208F1010000F009
:10200000FF08B8F1080FE9DB009D781C87B2601C5F
:10201000C4B2102CDADB21E000241DE004EB061032
:102020000F4911F800904FF0000810E009F001008E
:1020300038B13A1991B205EB080290B25A46FFF74F
:102040005AFF4FEA690908F1010000F0FF08B8F1F2
:10205000080FEBDB601CC4B2102CDFDB00BFA2E773
:10206000D23C0008F00100202DE9F05F81468A464D
:1020700093461D460B98012801D11B4C03E00B9899
:10208000022800D1194C0AEB0500401E83B209EB6F
:102090000500401E82B251464846FFF79DFE05FBF3
:1020A00005F0C11700EB5171C1F3C7080BFB0844E1
:1020B000002715E000260EE020780121B1400840FD
:1020C00018B10A9800F024F903E00948008800F0EC
:1020D0001FF9701CC6B2082EEEDB641C781CC7B258
:1020E0004745E7DBBDE8F09F2000002010010020FD
:1020F000F00100202DE9F84F06468A4690461D461D
:10210000DDF828904FF0000B002431E0281B401E22
:10211000C1B20A2001F0D2FDB8FBF0F00A21B0FBF9
:10212000F1F201FB1207BBF1000F11D1681EA042B2
:102130000EDD5FB9082101FB046188B20023202273
:102140005146CDF80090FFF721FF0FE04FF0010B53
:1021500007F13001CAB2082101FB046188B20023F3
:102160005146CDF80090FFF711FF00BF601CC4B2CC
:10217000AC42CBDBBDE8F88F2DE9F84F06468A4626
:1021800017461C46DDF828801E493846FEF756F8EB
:102190000090FEF777FA1FFA80FB00252EE0601B07
:1021A000401EC1B20A2001F089FDBBFBF0F00A21FC
:1021B000B0FBF1F201FB1209A01EA8420FD1A11E33
:1021C000082202FB016188B200232E225146CDF87D
:1021D0000080FFF7DBFE681CC5B2601CC4B209F1C9
:1021E0003001CAB2082101FB056188B200235146C3
:1021F000CDF80080FFF7CAFE681CC5B2A542CEDB51
:10220000BDE8F88F0000C842F8B505460E461446F2
:102210001F4619E0702D03DD002506F1100086B27F
:10222000702E06DD0020054606464FF47840FFF785
:10223000F4FD00972278002331462846FFF7A6FEDA
:1022400005F1080085B2641C20780028E2D1F8BDB1
:102250001CB5002400BF0EE0012040F2FF71CDE963
:102260000010082101EB0410102322460021FFF783
:10227000FBFE601CC4B2042CEEDB40F2CF1317A2AD
:1022800000214420FFF7C0FF00240EE0022040F2AE
:10229000FF71CDE90010082101EB04101023224644
:1022A0001421FFF7E1FE601CC4B2042CEEDB40F207
:1022B000CF130DA214214420FFF7A6FF40F2CF1345
:1022C0000BA228210420FFF79FFF40F2CF130CA29E
:1022D0003C210420FFF798FF1CBD00003A2020207D
:1022E000202E2020000000003A2020202E20200058
:1022F0004B503D20202E2020204B493D0000000067
:1023000020202E2020204B443D20202E2020000085
:1023100010B5044680210548FFF72CFC201200F080
:102320001FF8E0B200F01CF810BD000000140140DE
:1023300010B5044680210348FFF71CFC204600F03E
:102340000FF810BD0014014010B504468021034869
:10235000FFF70EFC204600F003F810BD001401400A
:1023600070B5044640211448FFF702FC00251BE02D
:102370004FF480611148FFF7FBFB04F0800028B1A7
:102380004FF400610D48FFF7F5FB04E04FF40061E6
:102390000A48FFF7EDFB4FF480610848FFF7EAFBBE
:1023A0006006040E681CC5B2082DE1DB402102481E
:1023B000FFF7E0FB70BD000000140140000C01407D
:1023C00008B50121102000F029FAFF20ADF8000027
:1023D00010208DF8030003208DF8020069460448A0
:1023E000FFF7F3FAFF210248FFF7C4FB08BD000026
:1023F0000010014008B50121382000F00FFA4FF419
:102400004060ADF8000010208DF8030003208DF827
:10241000020069469248FFF7D8FA4FF440619048AD
:10242000FFF7A8FBE020ADF8000010208DF80300B6
:1024300003208DF8020069468A48FFF7C6FAE021BA
:102440008848FFF797FB4FF48070ADF8000010202C
:102450008DF8030003208DF8020069468248FFF7DB
:10246000B4FA4FF480718048FFF784FB4FF4807119
:102470007D48FFF77DFBC82001F0B4FA4FF480716E
:102480007948FFF777FBC82001F0ACFA20217548A6
:10249000FFF770FBC82001F0A5FA1120FFF754FFE9
:1024A000782001F09FFAB120FFF74EFF0220FFF7DE
:1024B0003FFF3520FFF73CFF3620FFF739FFB22002
:1024C000FFF742FF0220FFF733FF3520FFF730FF11
:1024D0003620FFF72DFFB320FFF736FF0220FFF76E
:1024E00027FF3520FFF724FF3620FFF721FF0220CA
:1024F000FFF71EFF3520FFF71BFF3620FFF718FF01
:10250000B420FFF721FF0320FFF712FFC020FFF7E1
:102510001BFFA220FFF70CFF0220FFF709FF84201A
:10252000FFF706FFC120FFF70FFFC520FFF700FFF1
:10253000C220FFF709FF0D20FFF7FAFE0020FFF78A
:10254000F7FEC320FFF700FF8D20FFF7F1FE2A20E2
:10255000FFF7EEFEC420FFF7F7FE8D20FFF7E8FE41
:10256000EE20FFF7E5FEC520FFF7EEFE0A20FFF79D
:10257000DFFE3620FFF7E8FEA820FFF7D9FEE020B7
:10258000FFF7E2FE1220FFF7D3FE1C20FFF7D0FE7C
:102590001020FFF7CDFE1820FFF7CAFE3320FFF70B
:1025A000C7FE2C20FFF7C4FE2520FFF7C1FE282020
:1025B000FFF7BEFE2820FFF7BBFE2720FFF7B8FE7F
:1025C0002F20FFF7B5FE3C20FFF7B2FE0020FFF7FB
:1025D000AFFE0320FFF7ACFE0320FFF7A9FE10209B
:1025E000FFF7A6FEE120FFF7AFFE1220FFF7A0FEE7
:1025F0001C20FFF79DFE1020FFF79AFE1820FFF722
:1026000097FE2D20FFF794FE2820FFF791FE232050
:10261000FFF78EFE2820FFF78BFE2820FFF788FEAD
:102620002620FFF785FE2F20FFF782FE3B20FFF7D5
:102630007FFE0020FFF77CFE0320FFF779FE0320DA
:10264000FFF776FE1020FFF773FE3A20FFF77CFEBF
:102650000520FFF76DFE2920FFF776FE08BD00007C
:10266000000C0140001401400010014000BFFEE7D3
:102670007047000070B5002100230F22C47804B316
:10268000154C246804F4E064C4F5E064210AC1F147
:102690000403CA40447804FA03F1847814402143C7
:1026A00009010E4C0678A155047804F01F05012499
:1026B000AC4005786D11AD0005F1E025C5F800418D
:1026C00009E0047804F01F050124AC40044D0678AD
:1026D000761145F8264070BD0CED00E000E400E006
:1026E00080E100E002490143024A116070470000A6
:1026F0000000FA050CED00E0704700002DE9F047FE
:1027000004460D462F480460456002465168106833
:10271000FDF78EFD2B494861084681694FF08040E6
:10272000FDF78CFD8146274A5169D069FDF72EFDE2
:1027300082464946FDF77CFD8046224801694046B5
:10274000FDF77CFD06461F4A5169D068FDF776FD0E
:1027500081461C4A91695069FDF76AFD8246194815
:1027600081685046FDF76AFD80464946FDF70EFD3B
:1027700007463146FDF70AFD1249C86308468069DD
:10278000C8610846406988610846C16B0E48006808
:10279000FDF7FCFC0C4908600C490B480068FEF78B
:1027A00007F803D209480849086008E000210648F4
:1027B0000068FDF7F3FF02D2002003490860BDE87E
:1027C000F0870000100200201C00002000007A4466
:1027D000002007490860486048618861C861054871
:1027E0000861C860044888600020C8637047000022
:1027F000100200200000A0400000704129B1064AEC
:10280000D2690243044BDA6104E0034AD26982438D
:10281000014BDA61704700000010024029B1064AFE
:1028200092690243044B9A6104E0034A926982432D
:10283000014B9A61704700000010024030B5002142
:102840000022002400232D4D6D6805F00C0121B1FC
:10285000042905D0082923D105E0294D056022E08F
:10286000274D05601FE0254D6D6805F47012234D5E
:102870006D6805F48034022505EB92421CB9214DA8
:10288000554305600BE01D4D6D6805F400351DB125
:102890001C4D5543056002E0194D5543056002E0AB
:1028A000174D056000BF00BF144D6D6805F0F001C5
:1028B0000909154D6B5C0568DD4045600F4D6D687D
:1028C00005F4E061090A104D6B5C4568DD408560E8
:1028D0000A4D6D6805F46051C90A0B4D6B5C456883
:1028E000DD40C560054D6D6805F44041890B074D1D
:1028F0006B5CC568B5FBF3F5056130BD00100240A7
:1029000000127A0000093D00060000201600002099
:10291000704700002DE9F0478AB0D948407F6F2802
:1029200079D14FF0000A86E1D54810F80A007028E6
:102930000ED0D34810F80A00692809D0D04810F802
:102940000A00642804D0CE4810F80A0065287DD11A
:10295000CB4810F80A00642879D0652878D0692817
:102960005AD0702856D1C64A0AF10501515CA1F12E
:102970003000FDF769FE0646C24AC34BFDF775FD00
:1029800004460D46BE4A0AF10401515CA1F1300033
:10299000FDF75AFE0646BD4ABD4BFDF766FDB84A37
:1029A000CDE904010AF10201515CA1F13000FDF70B
:1029B0004BFE80468946B24A0AF10101515CA1F101
:1029C0003000FDF741FE06460022B24BFDF74DFDFB
:1029D00042464B46CDE90001FDF7A0FCCDE90201DE
:1029E000DDE90423FDF79AFC22462B46CDE90601DA
:1029F000FDF794FCCDE90801FDF7B4FEA649886017
:102A00004FF47840009008460423282182681C2057
:102A1000FFF7B2FB0AE11CE1994A0AF10501515C9A
:102A2000A1F13000FDF710FE0446964A964BFDF7E3
:102A30001CFD934ACDE906010AF10401515CA1F1A4
:102A40003000FDF701FE0446904A02E0EFE03EE070
:102A500095E08F4BFDF709FD894ACDE902010AF1A6
:102A60000201515CA1F13000FDF7EEFD04460D4678
:102A7000834A0AF10101515CA1F13000FDF7E4FD48
:102A800080460022834BFDF7F0FC064622462B468B
:102A9000FDF744FCCDE90001DDE90223FDF73EFC32
:102AA000CDE90401DDE90623FDF738FCCDE9080195
:102AB000FDF758FE7849C8604FF47840009008460A
:102AC00004233C21C2681846FFF756FBAEE06C4A6F
:102AD0000AF10501515CA1F13000FDF7B5FD044696
:102AE000684A694BFDF7C1FC80468946644A0AF191
:102AF0000401515CA1F13000FDF7A6FD0446634AD4
:102B0000634BFDF7B2FC5E4ACDE904010AF1020114
:102B1000515CA1F13000FDF797FD04460D46584A7F
:102B20000AF10101515CA1F13000FDF78DFD002299
:102B3000584BCDE90001FDF798FC064622462B468E
:102B4000FDF7ECFBCDE90201DDE90423FDF7E6FB2F
:102B500042464B46CDE90601FDF7E0FBCDE9080111
:102B6000FDF700FE4C4908614FF47840009008469C
:102B700004233C2102694C20FFF7FEFA56E0404A4C
:102B80000AF10501515CA1F13000FDF75DFD04463D
:102B90003C4A3D4BFDF769FC394ACDE906010AF193
:102BA0000401515CA1F13000FDF74EFD0446374AA7
:102BB000374BFDF75AFC324ACDE902010AF1020116
:102BC000515CA1F13000FDF73FFD804689462C4A5B
:102BD0000AF10101515CA1F13000FDF735FD064617
:102BE00000222C4BFDF741FC044642464B46FDF7C4
:102BF00095FBCDE90001DDE90223FDF78FFBCDE96F
:102C00000401DDE90623FDF789FBCDE90801FDF7A5
:102C1000A9FD224908604FF478400423009008463B
:102C2000142102685020FFF7A7FA00BF00BF0AF185
:102C3000010000F0FF0ABAF1190FFFF675AE18A0F7
:102C400000F0A8FE1E210E48FDF795FA0020154958
:102C500008704FF0000A0BE0094810F80A006F28CE
:102C600002D10749487706E00AF1010000F0FF0AA7
:102C7000BAF11D0FF0DB00BF0AB0BDE8F08700001D
:102C8000780200207B14AE47E17A843F9A999999A3
:102C90009999B93F00002440100200200000002054
:102CA0004F4B00000A02002010B500F001F810BDE3
:102CB0000CB50020019000903348006840F480304B
:102CC0003149086000BF3048006800F400300090CF
:102CD0000198401C0190009818B90198B0F5A06FB8
:102CE000F1D12948006800F4003010B101200090B3
:102CF00001E0002000900098012843D1234800689B
:102D000040F01000214908600846006820F00300E8
:102D100008600846006840F0020008601A484068F1
:102D2000194948600846406848600846406840F4D1
:102D3000806048600846406820F47C10486008467F
:102D4000406840F4E81048600846006840F0807031
:102D5000086000BF0C48006800F000700028F9D03F
:102D60000948406820F00300074948600846406869
:102D700040F00200486000BF0348406800F00C00CB
:102D80000828F9D10CBD00000010024000200240CC
:102D9000042808D14FF0E021096941F004014FF007
:102DA000E022116107E04FF0E021096921F0040100
:102DB0004FF0E022116170477047000010B50446E3
:102DC0006FF00400FFF7E4FFE11704EB5171C1F36A
:102DD000C701074A11701046007800EB4001C1EBB3
:102DE000C0104FF6FF7101EAC0000249088010BD13
:102DF000060200200802002010B51348006840F0C9
:102E000001001149086008464068104908400E4911
:102E10004860084600680E4908400B4908600846AB
:102E2000006820F4802008600846406820F4FE0016
:102E300048604FF41F008860FFF736FF4FF00060D6
:102E40000449086010BD0000001002400000FFF8B7
:102E5000FFFFF6FE08ED00E0F0B50C461546002237
:102E60000021068C4FF6FE773E400684028B018CD3
:102E70004FF60C7632407E1C06EA03162E43324390
:102E8000104EB0420ED0104EB0420BD0B0F1804F79
:102E900008D00E4EB04205D00D4EB04202D00D4EBD
:102EA000B04206D14FF6FD76314044F00106314381
:102EB00005E04FF6F576314044F0010631430283D8
:102EC0000184F0BD002C01400034014000040040AA
:102ED00000080040000C0040F0B50C4615460022EA
:102EE00000210026078C4FF6EF7C07EA0C070784C9
:102EF000028B018C4FF6FF7707EA041640F6FF4776
:102F00003A404FF6FF7707EA03373A434FF6FF7729
:102F100007EA05273A43114FB8420ED0104FB84286
:102F20000BD0B0F1804F08D00E4FB84205D00E4FF5
:102F3000B84202D00D4FB84206D14FF6DF77394084
:102F400046F01007394305E04FF65F77394044F00B
:102F50001007394302830184F0BD0000002C0140BA
:102F6000003401400004004000080040000C004014
:102F7000F0B50C461546002200210026078C4FF6BE
:102F8000FF6C07EA0C070784828B018C4FF6FF77F2
:102F900007EA04264FF60C773A404FF6FF7707EA28
:102FA00003172F433A43114FB8420ED0104FB84287
:102FB0000BD0B0F1804F08D00E4FB84205D00E4F65
:102FC000B84202D00D4FB84206D14FF6FF573940F4
:102FD00046F48077394305E04FF2FF57394044F417
:102FE0008077394382830184F0BD0000002C0140CA
:102FF000003401400004004000080040000C004084
:10300000F0B50C461546002200210026078C4EF62E
:10301000FF7C07EA0C070784828B018C4FF6FF7751
:1030200007EA043640F6FF473A404FF6FF7707EAD3
:1030300005273A434FF6FF7707EA03373A43114F24
:10304000B8420ED0104FB8420BD0B0F1804F08D02C
:103050000E4FB84205D00E4FB84202D00D4FB842C5
:1030600006D14DF6FF77394046F48057394305E0E5
:1030700047F6FF57394044F480573943828301842F
:10308000F0BD0000002C014000340140000400406D
:1030900000080040000C004030B589B005460C46E1
:1030A00001211020FFF7BAFB01210220FFF7A6FB48
:1030B00001210846FFF7B2FB4020ADF804000320D1
:1030C0008DF8060018208DF8070001A91748FEF7B3
:1030D0007CFC01211648FEF703FDADF81C50ADF84D
:1030E00018400020ADF81E00ADF81A0006A91148DE
:1030F00000F0E0F96020ADF808000020ADF8100005
:103100000120ADF80A0002A90A4800F04FF9082191
:10311000084800F097F90121064800F0BBF80121AA
:10312000044800F0C6F809B030BD000000100140AE
:10313000000C1A000004004010B50121074800F0FF
:10314000C4F830B106480088801C05490880FEF7A5
:103150008FFD0121014800F0A9F810BD00080040D2
:10316000F20100207FB505460C4601210420FFF73F
:1031700045FBADF80850ADF804400020ADF80A005A
:10318000ADF8060001A90F4800F094F9012211469C
:103190000C4800F001F901210A4800F087F81E20D0
:1031A0008DF8000001208DF801008DF802008DF8E7
:1031B00003006846FFF75EFA0121024800F079F843
:1031C0007FBD00000008004030B589B005460C46C0
:1031D00001210420FFF722FB01210820FFF70EFB4D
:1031E0000120ADF8040028208DF8070001A91D4832
:1031F000FEF7EBFBADF81C50ADF818400020ADF821
:103200001E00ADF81A0006A9174800F053F9002077
:10321000ADF80C000220ADF81400ADF80E0000204F
:10322000ADF812000120ADF8100003A90E4800F01F
:103230005DF8012203210C4800F0AEF832208DF831
:10324000080000208DF809008DF80A0001208DF893
:103250000B0002A8FFF70EFA0121034800F029F83D
:1032600009B030BD00080140000C004010B502213B
:10327000064800F02AF820B105480088401C04499F
:1032800008800321014800F011F810BD000C004037
:103290001A00002021B1028842F08002028004E07E
:1032A00002884FF67F731A4002807047CA43028239
:1032B000704721B1028842F00102028004E00288D6
:1032C0004FF6FE731A400280704730B50246002068
:1032D00000230024158A05EA0103958905EA010403
:1032E00013B10CB1012000E0002030BD70B50546DF
:1032F0000C46244885420ED0234885420BD0B5F1B8
:10330000804F08D02148854205D02148854202D00F
:103310002048854200D100E000BF208850B92389B1
:10332000A28861882846FFF797FDE188284600F0CB
:1033300094F825E0208804280AD12389A28861888E
:103340002846FFF7C9FDE188284600F08FF817E00E
:10335000208808280AD12389A28861882846FFF797
:1033600007FEE188284600F08EF809E02389A2884C
:1033700061882846FFF744FEE188284600F08CF873
:1033800070BD0000002C01400034014000040040EA
:1033900000080040000C00401AB183890B43838170
:1033A00002E083898B4383817047000070B500245D
:1033B00000220023058C4FF6FE7635400584028CF2
:1033C0008388048B4FF68F752C40B51E2C400D88DA
:1033D0002C43751E2A400D892A434D882A43144DDB
:1033E000A8420BD0134DA84208D0134DA84205D0D7
:1033F000124DA84202D0124DA84213D14FF6F775D4
:103400002A404D892A434FF6FB752A408D882A436E
:103410004FF6FF652B404FF6FF552B408D892B4310
:10342000CD892B4383800483CD888586028470BD3B
:10343000002C0140003401400040014000440140A4
:10344000004801400A460021018B4FF6F7731940EE
:1034500011430183704781867047028B4FF6F373E7
:103460001A400283028B0A4302837047028B4FF299
:10347000FF331A400283028B4FF6FF7303EA0123E6
:103480001A4302837047828B4FF6F3731A4082838C
:10349000828B0A4382837047828B4FF2FF331A403C
:1034A0008283828B4FF6FF7303EA01231A438283E0
:1034B00070470000002202881D4B98420ED01D4B21
:1034C00098420BD0B0F1804F08D01B4B984205D0EA
:1034D0001A4B984202D01A4B984204D14FF68F7380
:1034E0001A404B881A43174B984207D0164B984204
:1034F00004D04FF6FF431A40CB881A4302808B88D2
:1035000083850B8803850A4B98420BD0094B984260
:1035100008D00E4B984205D00D4B984202D00D4B6F
:10352000984201D10B7A0386012383827047000001
:10353000002C01400034014000040040000800401D
:10354000000C00400010004000140040004001400A
:10355000004401400048014010B540F22551664842
:1035600000F050F9002879D0634800F007FAC4B29F
:10357000624800783F280FDD604800784A280BDA5F
:103580006F215F4802780078401C5D4B18705D48E1
:10359000815400205949087058480078132810DBDE
:1035A000564800783F280CDC554801780078401CCC
:1035B000534A107053484454504800780A304F49D9
:1035C00008703D2C50D14D4800780A284CDD4B48FE
:1035D00000780B2806D00F2813D0102820D01128EF
:1035E0003DD12CE0454800780830444908706521F9
:1035F000434802780078401C414B18704148815480
:1036000031E03E480078401D3C49087070213C483C
:1036100002780078401C3A4B18703A48815422E0F6
:1036200036480078401D35490870692134480278D1
:103630000078401C324B18703248815413E02F48F8
:103640000078401D2D49087064212D4802780078CB
:10365000401C2B4B18702B48815404E046E000209E
:103660002649087000BF00BF24480078012803D015
:1036700022480078052825D1642C18D0652C04D068
:10368000692C0ED0702C18D105E01C4800780A3047
:103690001A49087015E0194800780A30174908706F
:1036A0000FE0164800780B301449087009E0134801
:1036B00000780C301149087003E000200F490870B1
:1036C00000BF00BF0D48007880B96B2C07D0732C69
:1036D0000BD10A480078401C0849087005E00748EB
:1036E0000078401D0549087000BF00BF4021024816
:1036F00000F066F810BD0000003801400B02002009
:103700000A0200207802002010B586B0044601218C
:103710000420FFF783F801218803FFF77FF80121D8
:103720000846FFF77BF84FF40070ADF81400032053
:103730008DF8160018208DF8170005A91E48FEF711
:1037400044F94FF48060ADF8140004208DF81700A0
:1037500005A91948FEF739F901940020ADF80800D1
:10376000ADF80A00ADF80C00ADF810000C20ADF873
:103770000E0001A9114800F095F801210F4800F052
:1037800028F840210D4800F01BF8012240F2255195
:103790000A4800F061F825208DF8000003208DF81C
:1037A00001008DF8020001208DF803006846FEF745
:1037B00061FF06B010BD0000000801400038014064
:1037C00001F40072B2F5007F00D100BFCA4302804D
:1037D000704721B1828942F40052828104E08289DB
:1037E0004DF6FF731A408281704702460020B1F502
:1037F000007F00D100BF13880B400BB1012000E017
:103800000020704770B502460024002300250020E8
:1038100040F66A16B14200D100BFC1F3421501F073
:103820001F03012606FA03F3012D02D196893340C6
:1038300006E0022D02D1168A334001E0968A334019
:103840000C12012606FA04F41688344013B10CB1A8
:10385000012000E0002070BDF0B5034600240026E2
:103860000025002040F66A17B94200D100BF184673
:10387000C1F3421401F01F06012707FA06F5012CD7
:1038800001D10C3004E0022C01D1103000E01430E2
:103890001AB107682F43076002E00768AF4307606B
:1038A000F0BD00002DE9F04786B005460E46002425
:1038B000A24600BFA1460027B08900B100BF2F4635
:1038C0002C8A4CF6FF700440F08804432C82AC89AB
:1038D0004EF6F3100440B0883189084371890843DB
:1038E0000443AC81AC8A4FF6FF400440B0890443E6
:1038F000AC8201A8FEF7A2FF1F48874202D1DDF883
:1039000010A001E0DDF80CA0A88900F4004040B14F
:103910000AEBCA0000EB0A1031684900B0FBF1F86D
:1039200007E00AEBCA0000EB0A1031688900B0FB1F
:10393000F1F86420B8FBF0F004012009642101FBD8
:103940001089A88900F4004040B1322000EBC90082
:10395000B0FBF1F000F00700044308E0322000EB78
:1039600009106421B0FBF1F000F00F0004432C813A
:1039700006B0BDE8F08700000038014001468888A5
:10398000C0F308007047C1F308028280704700BF8F
:10399000FEE70000014A024900F013B8313A00087E
:1039A0000C02002002E008C8121F08C1002AFAD148
:1039B00070477047002001E001C1121F002AFBD1AF
:1039C00070472DE9F04116460F460446002503E0F6
:1039D0003946B047641C6D1C20780028F8D1284671
:1039E000BDE8F0810146114A12884A434FF0E023B6
:1039F0005A6100229A611A46126942F001021A6164
:103A000000BF4FF0E022106900F001021AB100F48B
:103A10008032002AF5D04FF0E022126922F0010234
:103A20004FF0E0231A6100229A61704708020020DB
:103A300070B504460D46E1B20548FFF7A4FF00BF8C
:103A400080210348FFF7D1FE0028F9D0204670BD41
:103A50000038014088B00024A146A246A346482071
:103A6000FFF7ACF94FF48060FEF73CFEFEF7A8FCD0
:103A70004FF41650FFF748FE47214FF47A70FFF7D6
:103A8000A3FB47214FF47A70FFF706FB47214FF461
:103A9000FA60FFF767FBFEF79BFEFEF7ABFC4FF605
:103AA000FF70FEF7BAF94FF6FF7075490880FEF710
:103AB000CFFB4FF478400423009072481421026831
:103AC0005020FEF759FBFEF7ABF84FF6E0707D2370
:103AD0000422502100901046FEF7B7F94FF6E0702F
:103AE00067237D22194600900420FEF7AEF94FF4BB
:103AF0007840009064480423282182681C20FEF747
:103B00003BFB4FF4784000905F4804233C21C2689F
:103B10001846FEF731FB4FF4784000905A480423D2
:103B20003C2102694C20FEF727FBA8E0574800889B
:103B300064287DDB56480088FCF797FD0022554B32
:103B4000CDE90601FCF703FD07460022524BFCF7C6
:103B50008CFC0546FCF706FE044600204C49088014
:103B60004A49088009F1010000F0FF094B4800783C
:103B700001280ED1214643480068FEF7BFFD4848A2
:103B80000068FCF77FFD85B229464648FFF763FCD5
:103B900003E000214348FFF75EFC3A4801682046F5
:103BA000FCF746FB0746FCF79AFD05464FF06632E8
:103BB0003D4BFCF7A7FD4FD8324801682046FCF783
:103BC00037FB0746FCF78BFD05464FF06632374B57
:103BD000FCF7B0FD40D8D3462A480068FCF77FFDCB
:103BE0004FF06632304BCDE90001FCF738FC05465A
:103BF0000E462046FCF773FD2A463346CDE9020106
:103C0000FCF72DFC00222A4BCDE90401FCF72DFC2A
:103C100007460022274BFCF725FCCDE90601FCF7FF
:103C200045FD1FFA80FA24480088401E82B200E059
:103C300014E05B46514620480088FEF76AF91E48AA
:103C40000088401C1C490880084600887D2803DB4A
:103C500006200880FCF7BCFEFEF75CFEB9F10A0FF7
:103C60000ADB4FF000094FF478400423224600217C
:103C700000905020FEF780FA0024FDF797FF55E7EB
:103C8000F00100200000002010020020F2010020BE
:103C90001A00002000E0744000002440F6010020DB
:103CA0001C0000200004004066661240666612C0D8
:103CB0000000144000405F400400002010B50246A0
:103CC000012000E050430B00A1F10104E1B2F9D161
:103CD00010BD000000000000000000000000000017
:103CE000000000000008080808080808000018186C
:103CF000000000486C2412000000000000000000DA
:103D000000000000002424247F1212127F121212DD
:103D100000000000081C2A2A0A0C1828282A2A1C3D
:103D2000080800000022251515152A58545454225D
:103D300000000000000C1212120A76252911916E63
:103D40000000000606040300000000000000000060
:103D50000000004020101008080808080810102073
:103D60004000000204080810101010101008080489
:103D700002000000000008086B1C1C6B0808000013
:103D8000000000000000080808087F080808080074
:103D90000000000000000000000000000000060617
:103DA00004030000000000000000FE00000000000E
:103DB00000000000000000000000000000000606F7
:103DC0000000000080404020201010080804040279
:103DD000020000000018244242424242424224189B
:103DE0000000000000080E08080808080808083E3F
:103DF00000000000003C4242422020100804427EA5
:103E000000000000003C4242201820404042221C9A
:103E10000000000000203028242422227E20207868
:103E200000000000007E0202021A26404042221CCE
:103E30000000000000382402021A264242422418E0
:103E400000000000007E2222101008080808080860
:103E500000000000003C4242422418244242423CFE
:103E60000000000000182442424264584040241CD4
:103E700000000000000000001818000000001818E2
:103E80000000000000000000000800000000000822
:103E9000080400000040201008040204081020401C
:103EA00000000000000000007F0000007F00000014
:103EB0000000000000020408102040201008040246
:103EC00000000000003C424246402010100018183C
:103ED00000000000001C225A555555552D42221C49
:103EE00000000000000808181414243C224242E795
:103EF00000000000001F2222221E22424242221FF6
:103F000000000000007C4242010101010142221C2C
:103F100000000000001F2242424242424242221F51
:103F200000000000003F4212121E12120242423FE5
:103F300000000000003F4212121E1212020202078D
:103F400000000000003C2222010101712122221CFC
:103F50000000000000E7424242427E42424242E705
:103F600000000000003E0808080808080808083E8D
:103F700000000000007C1010101010101010101025
:103F8000110F0000007722120A0E0A121222227765
:103F90000000000000070202020202020202427F49
:103FA000000000000077363636362A2A2A2A2A6B85
:103FB0000000000000E346464A4A525252626247FD
:103FC00000000000001C2241414141414141221CAE
:103FD00000000000003F424242423E02020202074D
:103FE00000000000001C2241414141414D53321C60
:103FF00060000000003F4242423E1212222242C7AD
:1040000000000000007C4242020418204042423E70
:1040100000000000007F4908080808080808081C7C
:104020000000000000E74242424242424242423C1B
:104030000000000000E7424222242414141808085B
:1040400000000000006B494949495555362222229B
:104050000000000000E7422424181818242442E736
:104060000000000000772222141408080808081C29
:1040700000000000007E2120101008040442423F8E
:104080000000007808080808080808080808080858
:104090007800000002020404080808101020202004
:1040A0004040001E101010101010101010101010B2
:1040B0001E00003844000000000000000000000066
:1040C00000000000000000000000000000000000F0
:1040D00000FF0006080000000000000000000000D3
:1040E0000000000000000000003C4278444242FC16
:1040F0000000000000030202021A26424242261A71
:1041000000000000000000000038440202024438B1
:10411000000000000060404040784442424264D8C1
:104120000000000000000000003C427E0202423C11
:104130000000000000F08808087E08080808083E13
:104140000000000000000000007C22221C023C4213
:10415000423C000000030202023A4642424242E769
:1041600000000000000C0C00000E08080808083EC3
:1041700000000000003030000038202020202020E7
:10418000221E0000000302020272120A1612227797
:1041900000000000000E0808080808080808083E8B
:1041A0000000000000000000007F9292929292B7FF
:1041B0000000000000000000003B4642424242E78F
:1041C0000000000000000000003C42424242423C2D
:1041D0000000000000000000001B26424242221E98
:1041E0000207000000000000007844424242447888
:1041F00040E000000000000000774C040404041FAD
:104200000000000000000000007C42023C40423EF2
:104210000000000000000008083E080808080830F8
:10422000000000000000000000634242424262DCE5
:10423000000000000000000000E7422424140808E9
:10424000000000000000000000EB49495555222203
:104250000000000000000000007624181818246EEA
:10426000000000000000000000E7422424141808A9
:104270000807000000000000007E22100808447EAD
:10428000000000C0202020202010202020202020FE
:10429000C00010101010101010101010101010107E
:1042A0001010000608080808081008080808080880
:1042B00006000C32C20000000000000000000000F8
:1042C0000000FFFFFFFFFFFFFFFFFFFFFFFFFFFFFC
:1042D000FFFFFFFFFFFFFFFFFFFFFFFFFFFFBEF737
:1042E0007DEFBAD6B6B5F39CB294B39CB29434A524
:1042F000F7BDFBDE7DEFFFFFFFFFFFFFFFFFFFFFCF
:10430000FFFFFFFFFFFFFFFFFFFFFFFFFFFFFFFFBD
:10431000FFFFFFFFFFFFFFFFFFFFFFFFFFFFFFFFAD
:10432000FFFFFFFFFFFFFFFFFFFFBEF7FBDEF39C7A
:10433000CB5AC73904218210421042104108831819
:104340004529C7390C6375AD3CE7BEF7FFFFFFFF9A
:10435000FFFFFFFFFFFFFFFFFFFFFFFFFFFFFFFF6D
:10436000FFFFFFFFFFFFFFFFFFFFFFFFFFFFFFFF5D
:10437000FFFFFFFFFFFFFFFF3CE7B2940842C318B7
:1043800082100421452986318631863186314529BE
:10439000042182104108C3180842F39C3CE7FFFF48
:1043A000FFFFFFFFFFFFFFFFFFFFFFFFFFFFFFFF1D
:1043B000FFFFFFFFFFFFFFFFFFFFFFFFFFFFFFFF0D
:1043C000FFFFFFFFFFFFFBDE0C63C318C318452987
:1043D000C739084208420842084208420842C73921
:1043E000C73986318631042141088210CB5ABAD6AA
:1043F000FFFFFFFFFFFFFFFFFFFFFFFFFFFFFFFFCD
:10440000FFFFFFFFFFFFFFFFFFFFFFFFFFFFFFFFBC
:10441000FFFFFFFFFBDECB5A82104529C739084258
:104420000842094A494A494A494A494A494A0842C6
:10443000C739C739C7398631452983180000C841B3
:1044400038C6FFFFFFFFFFFFFFFFFFFFFFFFFFFF7C
:10445000FFFFFFFFFFFFFFFFFFFFFFFFFFFFFFFF6C
:10446000FFFF7DEF8E7382104529C7390842094A44
:104470008A523084CF7B8A52494A4A52494ACB5A9F
:10448000CF7B0C630842C73986314529C318000029
:10449000494ABAD6FFFFFFFFFFFFFFFFFFFFFFFF05
:1044A000FFFFFFFFFFFFFFFFFFFFFFFFFFFFFFFF1C
:1044B000FFFFF39CC3180421C7390842494A494AFF
:1044C00072947DEF7DEFB2944A52494A8A5275AD9B
:1044D000BEF7BAD64D6BC739C73986314529C318DF
:1044E0004108CF7B7CE7FFFFFFFFFFFFFFFFFFFFE0
:1044F000FFFFFFFFFFFFFFFFFFFFFFFFFFFFFFFFCC
:10450000BAD608428210C7390842494A494A8E73CE
:10451000FBDEFFFFBEF7BAD68E73084230843CE75D
:104520007DEFFFFFB6B5494AC739863145290421D9
:1045300041084529B6B5FFFFFFFFFFFFFFFFFFFF63
:10454000FFFFFFFFFFFFFFFFFFFFFFFFFFFFBEF7C4
:10455000718C410845290842494A494A4A52B29455
:10456000BEF7BEF7B294CF7BCF7B494AB6B5F39C7A
:104570000C6338C6BAD60C638739C73986314529EA
:10458000C318410830847DEFFFFFFFFFFFFFFFFFEF
:10459000FFFFFFFFFFFFFFFFFFFFFFFFFFFF3CE706
:1045A000CB5A4108C7390842494A4A528A52F39CB9
:1045B000FFFF7DEFC739C3180C63CB5AB6B5B29471
:1045C000CB5A75ADFAD64D6B8739C7398631452937
:1045D000042141088A5279CEFFFFFFFFFFFFFFFF52
:1045E000FFFFFFFFFFFFFFFFFFFFFFFFFFFF38C6DB
:1045F00086310421C841494A494A4A52494AB18C44
:10460000BEF7BEF7B294CF7BCF7B494A74A57DEF4E
:104610007CE7BEF779CE0C63C739C73986314529A7
:1046200004218210452975ADBEF7FFFFFFFFFFFF94
:10463000FFFFFFFFFFFFFFFFFFFFFFFFFFFF34A5AF
:10464000821086310842494A494A8A52494A4D6B8A
:10465000BAD6FFFFFFFF79CE0D63C739CF7B7DEF61
:10466000FFFFFFFF75AD08428631C7398631452906
:104670004529C318C318B2947DEFFFFFFFFFFFFF6A
:10468000FFFFFFFFFFFFFFFFFFFFFFFFBEF7B28C43
:104690004108C7390842494A494A8A528A524A4A15
:1046A000D07B7AC67BBE906BC9398831C939B38457
:1046B000BBC6F8B5CC5A8631C739C73986314529CA
:1046C0004529C420410830843CE7FFFFFFFFFFFF7E
:1046D000FFFFFFFFFFFFFFFFFFFFFFFF3CE78A4AEF
:1046E000C310C7390842494A494A4A4A4A42093A24
:1046F000084A096B497BC67A05834683C57AC67228
:10470000097B485A87318821882986318631452995
:104710004529042141084A4ABAD6FFFFFFFFFFFF9F
:10472000FFFFFFFFFFFFFFFFFFFFFFFFF7C5825007
:104730000541C7290842494A4A42494A097B889BA0
:10474000C6B321D4A0DCE1E461ED61ED21EDA0E48C
:1047500020DC80CB43ABC482065A47214629452939
:104760000429041982108218F39C7DEFFFFFFFFFDC
:10477000FFFFFFFFFFFFFFFFFFFF7DEF4D9300A057
:1047800082B8C7310932494A867A43C36BEDF4F6E1
:10479000EBFD20FD20FD60FDA0FDA0FD60FD60FDA6
:1047A00020FDE0FCA0FC60F4C1DB839AC5494529EB
:1047B0000419C42082380050CB6ABAD6FFFFFFFF2D
:1047C000FFFFFFFFFFFFFFFFFFFFFBEE04A100C0A5
:1047D00000F0C3A0C8414942059B20FCA4FC69FD30
:1047E000E8FD63FD20FD60FD60FD60FD20FD20FD16
:1047F000E0FCE0FCA0FC60FC20FC41D3C54945196D
:10480000C438826841880070495A79CEFFFFFFFFA3
:10481000FFFFFFFFFFFFFFFFFFFFFBF682C000D09F
:1048200086C146F141C8457989528862866AC67A4E
:10483000C4BBE1FC60FD60FDA0FDA0FD60FD60FD6E
:10484000E0FC60E403938472446AC5414529C3587F
:1048500041A8409800B000600C6B79CEFFFFFFFFCD
:10486000FFFFFFFFFFFFFFFF7DEFCE83828800F891
:10487000C4D80CF38AFA82E882B04569C75108426D
:10488000083A865A839BA2BC22CD21CDA1C422B472
:10489000C47A063A862945290531C450419000C0A2
:1048A00000A800A000A800304A4ABAD6FFFFFFFFC8
:1048B000FFFFFFFFFFFF7DEF8E73C318053982A84E
:1048C00000F8C3F84DFB4DFBC7F9C3F082D8C3B065
:1048D00004814561465186498649464145414541E5
:1048E000454105490461829041B000D000C800A84C
:1048F00000A800B8415882108210B294BEF7FFFFA2
:10490000FFFFFFFFBEF7CF7B82100421862986417F
:10491000049940E841F886F9CBFA49FA82F800F8A0
:1049200000F000E841D841D041C041C041C041C081
:1049300041C800D000E000E000D800D000B800A8D6
:1049400041888248821082100000452979CEFFFFFD
:10495000FFFFBEF7F39C8210C31845298631C7318B
:10496000307CF3DC86E100F000F841F841F800F813
:1049700000F800F800F800F800F800F800F800F877
:1049800000F800E800E000E000D800C841A08A9AE2
:104990000C63041182108210410800004D6B7DEF02
:1049A000FFFFFBDE08424210452986318631494A25
:1049B00038BEFFFF38D686A900C800E000F000F836
:1049C00000F800F800F800F800F800F800F800F02F
:1049D00000F000E800E000D0C3988A8AB2A4BAC60A
:1049E000F7B5084241088210410800004529F7BD8B
:1049F000FFFF718C410804214529863186310C6303
:104A00003CE7FFFF79D646B900E042C882A882B0F1
:104A100041D882E882F041E841E841E841F041E8CC
:104A200041D804C108924D8B34A5FBC6FBD6BACE43
:104A30003CE73084C3184108410800004108CF7B9F
:104A40007DEF494A000004214529463186313084F2
:104A5000FFFFFFF7F7DD09DA83F801F042C0829823
:104A6000499AF3B4F3CC71BC8EBB8EBB30BC71BC25
:104A7000F3BCB6BDFBCEBEE77DE73BDFBAD679CE51
:104A8000FBDE75AD86314108410800000000494A4F
:104A9000FBDE042141080421452945298739B294C8
:104AA000FFFFBEF734DD0CEB09FA00F001D800D8A7
:104AB0008BD27DE7FFFFFFFFFFFFFFFFFFFFFFFF41
:104AC000FFFFFFFFBEFF7DEFFBDEFBDEBAD679CE38
:104AD000BAD678C6C7390000410800000000C739BF
:104AE00079CE00008210C318042105298631B39CB9
:104AF000FFFFFFF775DDC7E9C7F901F801F000E82E
:104B000049E2FBEEFFFFFFFFFFFFFFFFFFFFFFFF9D
:104B1000FFFFFFFFBEF77DEFFBDEFBDEBAD679CEEF
:104B2000BAD6B9CE08420000000000000000C73924
:104B300038C60000821082100421042145293084E7
:104B4000FFFFFFFF38DEC4D000F001F800F800F0EE
:104B500008D2FBE6FFFFFFFFFFFFFFFFFFFFFFFFA6
:104B6000FFFFFFFFBEF77DEFFBDEBAD679CE79CE31
:104B7000BAD679CEC739410800000000000086315E
:104B800038C600000000C318CB5A8631C318CB5A70
:104B90007DEFFFFF7DEFCFBBC3B041D041D082B8E6
:104BA0004DB37DE7FFFFFFFFFFFFFFFFFFFFFFFFAD
:104BB000FFFFBEF7BEF73DEFFBDEBAD679CE79CE6A
:104BC000FAD6F7BD042186310421000000008631A9
:104BD00038C68631C318CB5A75ADCF7B41088631B4
:104BE000F7BDFFFFFFFFBEEF74B5309C309C72A491
:104BF000BBD6FFFFFFFFFFFFFFFFFFFFFFFFFFFF32
:104C0000FFFFBEF77DEF3CE7FBDEBAD679CE79CE6B
:104C10003CE7718C81080C63CF7B821000008A52C4
:104C200038C675AD718CB6B53CE7FBDEC739000000
:104C3000CF73FFFFFFFFFFFFFFFFFFFFFFFFFFFF40
:104C4000FFFFFFFFFFFFFFFFFFFFFFFFFFFFFFFF74
:104C5000BEF77DEF7DEF3BDFFAD679CE79CEFBDE76
:104C6000B9CEC739C420718CBAD6718CCB5AB294E4
:104C7000BAD6FFFF7DEF7DEFFFFFFFFFB6B54629F8
:104C8000051975A5FFFFFFFFFFFFFFFFFFFFFFFFF8
:104C9000FFFFFFFFFFFFFFFFFFFFFFFFFFFFFFFF24
:104CA000BEF77DEF3CE7FBDEBAD679CEBAD6FCDEA6
:104CB0004E6342080C63F7BDBEF7FFFFFBDEFBDE71
:104CC000BEF7FFFFFFFFFFFFFFFFFFFFFFFFF49CAB
:104CD00004210521B6A5FFFFFFFFFFFFFFFFFFFF38
:104CE000FFFFFFFFFFFFFFFFFFFFFFFFBEF7BEF766
:104CF0007DEF3CE7FBDEBAD679CEFBDEBBD6D173C7
:104D000083188639349DBDEFFFFFFFFFFFFFFFFFD4
:104D1000FFFFFFFFFFFFFFFFFFFFBEFF35D6EBCC1E
:104D200043B340510519F58CBEEFFFFFFFFFFFFFB6
:104D3000FFFFFFFFFFFFFFFFBEF7BEF77DEF7DEF39
:104D40003CE7FBDEBADEBAD63CDF3ABE4F638249AF
:104D500040A323B4CC833ABEFFFFFFFFFFFFFFFF5A
:104D6000FFFFFFFFFFFFFFFFBFF7B5BD829220F4FB
:104D7000A0FC60E4408284418F6B77AD3DE7FFFF8C
:104D8000FFFFFEFFBEF7BEF7BEF77DEF7DEF3CE70E
:104D9000FBDEFBDE3DE7BBCE369D0B6B416A60C49C
:104DA00020FE60F5008BC76A38C6BEF7FFFFFFFF25
:104DB000FFFFFFFFFFFFFFFF7DEF4B7B80B2A0FCFB
:104DC000A0FCE0FCE0FCC0CBC18A45624D6BB39413
:104DD000F7BD3DDFFFF7FFFFBEF77DEF7DEF7DE71E
:104DE0003DDFBAC675A58D7B847A40B3E0ECE0FD6B
:104DF000E0FD60F520E5A0D40A6BFBDEFFFFFFFFBE
:104E0000FFFFFFFFFFFFFFFF7DEFCC9340EB60FC58
:104E1000A0FCE0FC20FD60FD20F5A0D4C0BB429BBF
:104E2000458B6B9CAE9C718CB394339D34A5F2A4DE
:104E3000F0B4CA9B049B40BB20E420FDA0FDA0FD74
:104E4000E0FDE0FDE0FD20C4885A38BEFFFFFFFF13
:104E5000FFFFFFFFFFFFFFFFFFFF78D646AB40DB02
:104E600020F460FCA0FCE0FC60FDA0FD60FD20F5EE
:104E7000A0DCC0B3C05186290D638F7B0D5BC74199
:104E8000018200C3C0E360FCA0FCE0FCE0FC60F534
:104E900060F520E5809B8662308479CEFFFFFFFFBE
:104EA000FFFFFFFFFFFFFFFFFFFFFFFF38C62D9C47
:104EB000059343A382B3C2BBC2BB22B482A3429375
:104EC000C37A85620B637184B6B579CE79C6B5AD08
:104ED00070944A8B06830493049B439B439B4393A8
:104EE000048308738D73B39479CE7DEFFFFFFFFFCA
:104EF000FFFFFFFFFFFFFFFFFFFFFFFFFFFF3CDFA5
:104F000038BE75B533A533A5F39CF39CF39CF3949D
:104F1000F39C35A5F8BDFBDEBEF7FFFFFFFFFFFFEB
:104F20007EEFBBD6F8BDB6AD75AD34A5339D349DCF
:104F300035A5B7AD79C63CE7BEF7FFFFFFFFFFFF22
:104F4000FFFF0000644F0008000000201002000076
:104F5000740900084850000810020020880400006E
:104F6000B43900082154C841062D0102030404602D
:104F70000906070809020406081280100A8410882E
:104F800010900890048013FE1F2A10025AFC082972
:104F9000102009080810081004FF7F18087C10442E
:104FA0001244127C043906380910441054142408A1
:104FB00004011818BF3F02040A02C97F3F0208011A
:104FC000883F38200F110A0A0804080111101B023B
:104FD0000402E83F0802C01F40124F12C81F080712
:104FE000880A481228220802141AE25601121A0CE2
:104FF000026906012E4A06E9011F100C840F880879
:105000008808800840702F1014C81F88108808086E
:1050100009280518020805C018306040128027FED4
:105020007F024001201CFC1F800E12881B881F0479
:10503000111A94B0120109A4F0D80C010102030462
:0850400005060708090A5800E3
:0400000508000131BD
:00000001FF
